{
  "_format": "hh-sol-artifact-1",
  "contractName": "SurveyFactory",
  "sourceName": "contracts/SurveyFactory.sol",
  "abi": [
    {
      "inputs": [
        {
          "internalType": "address",
          "name": "_surveyImplementation",
          "type": "address"
        }
      ],
      "stateMutability": "nonpayable",
      "type": "constructor"
    },
    {
      "anonymous": false,
      "inputs": [
        {
          "indexed": false,
          "internalType": "address",
          "name": "survey",
          "type": "address"
        },
        {
          "indexed": false,
          "internalType": "uint256",
          "name": "_participants",
          "type": "uint256"
        },
        {
          "indexed": false,
          "internalType": "uint256",
          "name": "_endTime",
          "type": "uint256"
        },
        {
          "indexed": false,
          "internalType": "uint256",
          "name": "_capital",
          "type": "uint256"
        }
      ],
      "name": "SurveyCreated",
      "type": "event"
    },
    {
      "anonymous": false,
      "inputs": [
        {
          "indexed": false,
          "internalType": "address",
          "name": "survey",
          "type": "address"
        }
      ],
      "name": "SurveyEntersReviewStage",
      "type": "event"
    },
    {
      "anonymous": false,
      "inputs": [
        {
          "indexed": false,
          "internalType": "address",
          "name": "survey",
          "type": "address"
        }
      ],
      "name": "SurveyFinished",
      "type": "event"
    },
    {
      "inputs": [
        {
          "internalType": "address",
          "name": "_participant",
          "type": "address"
        }
      ],
      "name": "addSurveyCompleted",
      "outputs": [],
      "stateMutability": "nonpayable",
      "type": "function"
    },
    {
      "inputs": [
        {
          "internalType": "uint256",
          "name": "",
          "type": "uint256"
        }
      ],
      "name": "allSurveys",
      "outputs": [
        {
          "internalType": "address",
          "name": "",
          "type": "address"
        }
      ],
      "stateMutability": "view",
      "type": "function"
    },
    {
      "inputs": [
        {
          "internalType": "string[]",
          "name": "_questions",
          "type": "string[]"
        },
        {
          "internalType": "string",
          "name": "_name",
          "type": "string"
        },
        {
          "internalType": "uint256",
          "name": "_participants",
          "type": "uint256"
        },
        {
          "internalType": "uint256",
          "name": "_endTime",
          "type": "uint256"
        },
        {
          "internalType": "uint256",
          "name": "_reviewNeeded",
          "type": "uint256"
        },
        {
          "internalType": "uint256",
          "name": "_capital",
          "type": "uint256"
        }
      ],
      "name": "createSurvey",
      "outputs": [
        {
          "internalType": "address",
          "name": "survey",
          "type": "address"
        }
      ],
      "stateMutability": "payable",
      "type": "function"
    },
    {
      "inputs": [],
      "name": "enterReviewSurvey",
      "outputs": [],
      "stateMutability": "nonpayable",
      "type": "function"
    },
    {
      "inputs": [],
      "name": "finishSuvery",
      "outputs": [],
      "stateMutability": "nonpayable",
      "type": "function"
    },
    {
      "inputs": [],
      "name": "surveyImplementation",
      "outputs": [
        {
          "internalType": "address",
          "name": "",
          "type": "address"
        }
      ],
      "stateMutability": "view",
      "type": "function"
    },
    {
      "inputs": [],
      "name": "withdrawEarnings",
      "outputs": [],
      "stateMutability": "nonpayable",
      "type": "function"
    }
  ],
  "bytecode": "0x60806040523480156200001157600080fd5b5060405162001bb938038062001bb98339818101604052810190620000379190620000e8565b806000806101000a81548173ffffffffffffffffffffffffffffffffffffffff021916908373ffffffffffffffffffffffffffffffffffffffff160217905550506200011a565b600080fd5b600073ffffffffffffffffffffffffffffffffffffffff82169050919050565b6000620000b08262000083565b9050919050565b620000c281620000a3565b8114620000ce57600080fd5b50565b600081519050620000e281620000b7565b92915050565b6000602082840312156200010157620001006200007e565b5b60006200011184828501620000d1565b91505092915050565b611a8f806200012a6000396000f3fe6080604052600436106100705760003560e01c806372c258a01161004e57806372c258a0146100f9578063b1d23bdc14610110578063b1f06e2514610139578063b73c6ce91461016457610070565b80631b6f2485146100755780633780ad45146100b257806362c5f135146100e2575b600080fd5b34801561008157600080fd5b5061009c60048036038101906100979190610eda565b61017b565b6040516100a99190610f48565b60405180910390f35b6100cc60048036038101906100c7919061118f565b6101ba565b6040516100d99190610f48565b60405180910390f35b3480156100ee57600080fd5b506100f7610569565b005b34801561010557600080fd5b5061010e61062e565b005b34801561011c57600080fd5b5061013760048036038101906101329190611280565b61074b565b005b34801561014557600080fd5b5061014e61087a565b60405161015b9190610f48565b60405180910390f35b34801561017057600080fd5b5061017961089e565b005b6001818154811061018b57600080fd5b906000526020600020016000915054906101000a900473ffffffffffffffffffffffffffffffffffffffff1681565b60008134146101fe576040517f08c379a00000000000000000000000000000000000000000000000000000000081526004016101f590611330565b60405180910390fd5b428411610240576040517f08c379a00000000000000000000000000000000000000000000000000000000081526004016102379061139c565b60405180910390fd5b6000868686868660405160200161025b95949392919061144e565b60405160208183030381529060405280519060200120905061029d60008054906101000a900473ffffffffffffffffffffffffffffffffffffffff168261099e565b91508173ffffffffffffffffffffffffffffffffffffffff16631e7fea2088888888886040518663ffffffff1660e01b81526004016102e09594939291906114f1565b600060405180830381600087803b1580156102fa57600080fd5b505af115801561030e573d6000803e3d6000fd5b505050508173ffffffffffffffffffffffffffffffffffffffff1663c627278f896040518263ffffffff1660e01b815260040161034b9190611657565b600060405180830381600087803b15801561036557600080fd5b505af1158015610379573d6000803e3d6000fd5b50505050600180549050600260008473ffffffffffffffffffffffffffffffffffffffff1673ffffffffffffffffffffffffffffffffffffffff168152602001908152602001600020819055506001829080600181540180825580915050600190039060005260206000200160009091909190916101000a81548173ffffffffffffffffffffffffffffffffffffffff021916908373ffffffffffffffffffffffffffffffffffffffff1602179055506001600360008473ffffffffffffffffffffffffffffffffffffffff1673ffffffffffffffffffffffffffffffffffffffff16815260200190815260200160002060006101000a81548160ff021916908315150217905550600660003373ffffffffffffffffffffffffffffffffffffffff1673ffffffffffffffffffffffffffffffffffffffff168152602001908152602001600020829080600181540180825580915050600190039060005260206000200160009091909190916101000a81548173ffffffffffffffffffffffffffffffffffffffff021916908373ffffffffffffffffffffffffffffffffffffffff1602179055507f7dbdc74dfa202714f01ba5d9f06fafebc553262226547369c54db89d113d3667828787866040516105569493929190611679565b60405180910390a1509695505050505050565b600360003373ffffffffffffffffffffffffffffffffffffffff1673ffffffffffffffffffffffffffffffffffffffff16815260200190815260200160002060009054906101000a900460ff166105f5576040517f08c379a00000000000000000000000000000000000000000000000000000000081526004016105ec90611730565b60405180910390fd5b7f72db8bd478e31cfd979372e9950d692e086d3d1ecc6bac00a03ad2250750469b336040516106249190610f48565b60405180910390a1565b600360003373ffffffffffffffffffffffffffffffffffffffff1673ffffffffffffffffffffffffffffffffffffffff16815260200190815260200160002060009054906101000a900460ff166106ba576040517f08c379a00000000000000000000000000000000000000000000000000000000081526004016106b190611730565b60405180910390fd5b6001600460003373ffffffffffffffffffffffffffffffffffffffff1673ffffffffffffffffffffffffffffffffffffffff16815260200190815260200160002060006101000a81548160ff0219169083151502179055507f301c0465c7976681833e1cdbb71dc1682e51f66649c27885b7c077b8e7fc1e46336040516107419190610f48565b60405180910390a1565b600360003373ffffffffffffffffffffffffffffffffffffffff1673ffffffffffffffffffffffffffffffffffffffff16815260200190815260200160002060009054906101000a900460ff166107d7576040517f08c379a00000000000000000000000000000000000000000000000000000000081526004016107ce90611730565b60405180910390fd5b600560008273ffffffffffffffffffffffffffffffffffffffff1673ffffffffffffffffffffffffffffffffffffffff168152602001908152602001600020339080600181540180825580915050600190039060005260206000200160009091909190916101000a81548173ffffffffffffffffffffffffffffffffffffffff021916908373ffffffffffffffffffffffffffffffffffffffff16021790555050565b60008054906101000a900473ffffffffffffffffffffffffffffffffffffffff1681565b60006108a933610a5a565b9050600081116108ee576040517f08c379a00000000000000000000000000000000000000000000000000000000081526004016108e59061179c565b60405180910390fd5b60003373ffffffffffffffffffffffffffffffffffffffff1682604051610914906117ed565b60006040518083038185875af1925050503d8060008114610951576040519150601f19603f3d011682016040523d82523d6000602084013e610956565b606091505b505090508061099a576040517f08c379a00000000000000000000000000000000000000000000000000000000081526004016109919061184e565b60405180910390fd5b5050565b6000763d602d80600a3d3981f3363d3d373d3d3d363d730000008360601b60e81c176000526e5af43d82803e903d91602b57fd5bf38360781b1760205281603760096000f59050600073ffffffffffffffffffffffffffffffffffffffff168173ffffffffffffffffffffffffffffffffffffffff1603610a54576040517f08c379a0000000000000000000000000000000000000000000000000000000008152600401610a4b906118ba565b60405180910390fd5b92915050565b6000806000905060005b600560008573ffffffffffffffffffffffffffffffffffffffff1673ffffffffffffffffffffffffffffffffffffffff16815260200190815260200160002080549050811015610c9b5760046000600560008773ffffffffffffffffffffffffffffffffffffffff1673ffffffffffffffffffffffffffffffffffffffff1681526020019081526020016000208381548110610b0357610b026118da565b5b9060005260206000200160009054906101000a900473ffffffffffffffffffffffffffffffffffffffff1673ffffffffffffffffffffffffffffffffffffffff1673ffffffffffffffffffffffffffffffffffffffff16815260200190815260200160002060009054906101000a900460ff1615610c8857600560008573ffffffffffffffffffffffffffffffffffffffff1673ffffffffffffffffffffffffffffffffffffffff1681526020019081526020016000208181548110610bcc57610bcb6118da565b5b9060005260206000200160009054906101000a900473ffffffffffffffffffffffffffffffffffffffff1673ffffffffffffffffffffffffffffffffffffffff1663e0de0c68856040518263ffffffff1660e01b8152600401610c2f9190610f48565b602060405180830381865afa158015610c4c573d6000803e3d6000fd5b505050506040513d601f19601f82011682018060405250810190610c70919061191e565b82610c7b919061197a565b9150610c878482610ca5565b5b8080610c93906119ae565b915050610a64565b5080915050919050565b600560008373ffffffffffffffffffffffffffffffffffffffff1673ffffffffffffffffffffffffffffffffffffffff1681526020019081526020016000206001600560008573ffffffffffffffffffffffffffffffffffffffff1673ffffffffffffffffffffffffffffffffffffffff16815260200190815260200160002080549050610d3391906119f6565b81548110610d4457610d436118da565b5b9060005260206000200160009054906101000a900473ffffffffffffffffffffffffffffffffffffffff16600560008473ffffffffffffffffffffffffffffffffffffffff1673ffffffffffffffffffffffffffffffffffffffff1681526020019081526020016000208281548110610dc057610dbf6118da565b5b9060005260206000200160006101000a81548173ffffffffffffffffffffffffffffffffffffffff021916908373ffffffffffffffffffffffffffffffffffffffff160217905550600560008373ffffffffffffffffffffffffffffffffffffffff1673ffffffffffffffffffffffffffffffffffffffff168152602001908152602001600020805480610e5757610e56611a2a565b5b6001900381819060005260206000200160006101000a81549073ffffffffffffffffffffffffffffffffffffffff021916905590555050565b6000604051905090565b600080fd5b600080fd5b6000819050919050565b610eb781610ea4565b8114610ec257600080fd5b50565b600081359050610ed481610eae565b92915050565b600060208284031215610ef057610eef610e9a565b5b6000610efe84828501610ec5565b91505092915050565b600073ffffffffffffffffffffffffffffffffffffffff82169050919050565b6000610f3282610f07565b9050919050565b610f4281610f27565b82525050565b6000602082019050610f5d6000830184610f39565b92915050565b600080fd5b6000601f19601f8301169050919050565b7f4e487b7100000000000000000000000000000000000000000000000000000000600052604160045260246000fd5b610fb182610f68565b810181811067ffffffffffffffff82111715610fd057610fcf610f79565b5b80604052505050565b6000610fe3610e90565b9050610fef8282610fa8565b919050565b600067ffffffffffffffff82111561100f5761100e610f79565b5b602082029050602081019050919050565b600080fd5b600080fd5b600067ffffffffffffffff82111561104557611044610f79565b5b61104e82610f68565b9050602081019050919050565b82818337600083830152505050565b600061107d6110788461102a565b610fd9565b90508281526020810184848401111561109957611098611025565b5b6110a484828561105b565b509392505050565b600082601f8301126110c1576110c0610f63565b5b81356110d184826020860161106a565b91505092915050565b60006110ed6110e884610ff4565b610fd9565b905080838252602082019050602084028301858111156111105761110f611020565b5b835b8181101561115757803567ffffffffffffffff81111561113557611134610f63565b5b80860161114289826110ac565b85526020850194505050602081019050611112565b5050509392505050565b600082601f83011261117657611175610f63565b5b81356111868482602086016110da565b91505092915050565b60008060008060008060c087890312156111ac576111ab610e9a565b5b600087013567ffffffffffffffff8111156111ca576111c9610e9f565b5b6111d689828a01611161565b965050602087013567ffffffffffffffff8111156111f7576111f6610e9f565b5b61120389828a016110ac565b955050604061121489828a01610ec5565b945050606061122589828a01610ec5565b935050608061123689828a01610ec5565b92505060a061124789828a01610ec5565b9150509295509295509295565b61125d81610f27565b811461126857600080fd5b50565b60008135905061127a81611254565b92915050565b60006020828403121561129657611295610e9a565b5b60006112a48482850161126b565b91505092915050565b600082825260208201905092915050565b7f416d6f756e7420696e20746865206d657373616765206973206e6f742065717560008201527f616c20746f2074686520616d6f756e7420737065636966696564000000000000602082015250565b600061131a603a836112ad565b9150611325826112be565b604082019050919050565b600060208201905081810360008301526113498161130d565b9050919050565b7f456e642054696d65206d75737420626520696e20746865206675747572650000600082015250565b6000611386601e836112ad565b915061139182611350565b602082019050919050565b600060208201905081810360008301526113b581611379565b9050919050565b600081519050919050565b600081905092915050565b60005b838110156113f05780820151818401526020810190506113d5565b60008484015250505050565b6000611407826113bc565b61141181856113c7565b93506114218185602086016113d2565b80840191505092915050565b6000819050919050565b61144861144382610ea4565b61142d565b82525050565b600061145a82886113fc565b91506114668287611437565b6020820191506114768286611437565b6020820191506114868285611437565b6020820191506114968284611437565b6020820191508190509695505050505050565b60006114b4826113bc565b6114be81856112ad565b93506114ce8185602086016113d2565b6114d781610f68565b840191505092915050565b6114eb81610ea4565b82525050565b600060a082019050818103600083015261150b81886114a9565b905061151a60208301876114e2565b61152760408301866114e2565b61153460608301856114e2565b61154160808301846114e2565b9695505050505050565b600081519050919050565b600082825260208201905092915050565b6000819050602082019050919050565b600082825260208201905092915050565b6000611593826113bc565b61159d8185611577565b93506115ad8185602086016113d2565b6115b681610f68565b840191505092915050565b60006115cd8383611588565b905092915050565b6000602082019050919050565b60006115ed8261154b565b6115f78185611556565b93508360208202850161160985611567565b8060005b85811015611645578484038952815161162685826115c1565b9450611631836115d5565b925060208a0199505060018101905061160d565b50829750879550505050505092915050565b6000602082019050818103600083015261167181846115e2565b905092915050565b600060808201905061168e6000830187610f39565b61169b60208301866114e2565b6116a860408301856114e2565b6116b560608301846114e2565b95945050505050565b7f4f6e6c7920737572766579732063616e2063616c6c20746869732066756e637460008201527f696f6e0000000000000000000000000000000000000000000000000000000000602082015250565b600061171a6023836112ad565b9150611725826116be565b604082019050919050565b600060208201905081810360008301526117498161170d565b9050919050565b7f4e6f2070656e64696e67206561726e696e677300000000000000000000000000600082015250565b60006117866013836112ad565b915061179182611750565b602082019050919050565b600060208201905081810360008301526117b581611779565b9050919050565b600081905092915050565b50565b60006117d76000836117bc565b91506117e2826117c7565b600082019050919050565b60006117f8826117ca565b9150819050919050565b7f5769746864726177206661696c65640000000000000000000000000000000000600082015250565b6000611838600f836112ad565b915061184382611802565b602082019050919050565b600060208201905081810360008301526118678161182b565b9050919050565b7f455243313136373a2063726561746532206661696c6564000000000000000000600082015250565b60006118a46017836112ad565b91506118af8261186e565b602082019050919050565b600060208201905081810360008301526118d381611897565b9050919050565b7f4e487b7100000000000000000000000000000000000000000000000000000000600052603260045260246000fd5b60008151905061191881610eae565b92915050565b60006020828403121561193457611933610e9a565b5b600061194284828501611909565b91505092915050565b7f4e487b7100000000000000000000000000000000000000000000000000000000600052601160045260246000fd5b600061198582610ea4565b915061199083610ea4565b92508282019050808211156119a8576119a761194b565b5b92915050565b60006119b982610ea4565b91507fffffffffffffffffffffffffffffffffffffffffffffffffffffffffffffffff82036119eb576119ea61194b565b5b600182019050919050565b6000611a0182610ea4565b9150611a0c83610ea4565b9250828203905081811115611a2457611a2361194b565b5b92915050565b7f4e487b7100000000000000000000000000000000000000000000000000000000600052603160045260246000fdfea2646970667358221220f56ccc6cd0d11890331f81ce1d287fabcf804706915665c3669376e4052e324b64736f6c63430008100033",
  "linkReferences": {},
  "deployedLinkReferences": {}
}