{
  "_format": "hh-sol-artifact-1",
  "contractName": "Survey",
  "sourceName": "contracts/Survey.sol",
  "abi": [
    {
      "inputs": [],
      "stateMutability": "nonpayable",
      "type": "constructor"
    },
    {
      "anonymous": false,
      "inputs": [
        {
          "indexed": false,
          "internalType": "enum Survey.Stage",
          "name": "",
          "type": "uint8"
        }
      ],
      "name": "StageChanged",
      "type": "event"
    },
    {
      "inputs": [
        {
          "internalType": "string[]",
          "name": "_answers",
          "type": "string[]"
        }
      ],
      "name": "answerQuestions",
      "outputs": [],
      "stateMutability": "nonpayable",
      "type": "function"
    },
    {
      "inputs": [
        {
          "internalType": "address",
          "name": "_beneficiary",
          "type": "address"
        }
      ],
      "name": "calculateEarnings",
      "outputs": [
        {
          "internalType": "uint256",
          "name": "earnings",
          "type": "uint256"
        }
      ],
      "stateMutability": "view",
      "type": "function"
    },
    {
      "inputs": [],
      "name": "capitalParticipants",
      "outputs": [
        {
          "internalType": "uint256",
          "name": "",
          "type": "uint256"
        }
      ],
      "stateMutability": "view",
      "type": "function"
    },
    {
      "inputs": [],
      "name": "capitalReview",
      "outputs": [
        {
          "internalType": "uint256",
          "name": "",
          "type": "uint256"
        }
      ],
      "stateMutability": "view",
      "type": "function"
    },
    {
      "inputs": [],
      "name": "closeSurvey",
      "outputs": [],
      "stateMutability": "nonpayable",
      "type": "function"
    },
    {
      "inputs": [],
      "name": "endTime",
      "outputs": [
        {
          "internalType": "uint256",
          "name": "",
          "type": "uint256"
        }
      ],
      "stateMutability": "view",
      "type": "function"
    },
    {
      "inputs": [],
      "name": "factoryC",
      "outputs": [
        {
          "internalType": "contract IFactorContract",
          "name": "",
          "type": "address"
        }
      ],
      "stateMutability": "view",
      "type": "function"
    },
    {
      "inputs": [],
      "name": "getParticipants",
      "outputs": [
        {
          "internalType": "uint256",
          "name": "",
          "type": "uint256"
        }
      ],
      "stateMutability": "view",
      "type": "function"
    },
    {
      "inputs": [],
      "name": "getStage",
      "outputs": [
        {
          "internalType": "uint256",
          "name": "currentStage",
          "type": "uint256"
        }
      ],
      "stateMutability": "view",
      "type": "function"
    },
    {
      "inputs": [],
      "name": "getValidAnswers",
      "outputs": [
        {
          "internalType": "address[]",
          "name": "",
          "type": "address[]"
        }
      ],
      "stateMutability": "view",
      "type": "function"
    },
    {
      "inputs": [
        {
          "internalType": "string",
          "name": "_name",
          "type": "string"
        },
        {
          "internalType": "uint256",
          "name": "_participants",
          "type": "uint256"
        },
        {
          "internalType": "uint256",
          "name": "_endTime",
          "type": "uint256"
        },
        {
          "internalType": "uint256",
          "name": "_reviewNeeded",
          "type": "uint256"
        },
        {
          "internalType": "uint256",
          "name": "_capital",
          "type": "uint256"
        }
      ],
      "name": "initialize",
      "outputs": [],
      "stateMutability": "nonpayable",
      "type": "function"
    },
    {
      "inputs": [],
      "name": "maxNumberOfParticipants",
      "outputs": [
        {
          "internalType": "uint256",
          "name": "",
          "type": "uint256"
        }
      ],
      "stateMutability": "view",
      "type": "function"
    },
    {
      "inputs": [],
      "name": "name",
      "outputs": [
        {
          "internalType": "string",
          "name": "",
          "type": "string"
        }
      ],
      "stateMutability": "view",
      "type": "function"
    },
    {
      "inputs": [],
      "name": "owner",
      "outputs": [
        {
          "internalType": "address",
          "name": "",
          "type": "address"
        }
      ],
      "stateMutability": "view",
      "type": "function"
    },
    {
      "inputs": [
        {
          "internalType": "uint256",
          "name": "",
          "type": "uint256"
        }
      ],
      "name": "questions",
      "outputs": [
        {
          "internalType": "string",
          "name": "",
          "type": "string"
        }
      ],
      "stateMutability": "view",
      "type": "function"
    },
    {
      "inputs": [],
      "name": "requestReview",
      "outputs": [
        {
          "internalType": "address",
          "name": "",
          "type": "address"
        }
      ],
      "stateMutability": "nonpayable",
      "type": "function"
    },
    {
      "inputs": [
        {
          "internalType": "address",
          "name": "_reviewer",
          "type": "address"
        }
      ],
      "name": "returnReviewParticipant",
      "outputs": [
        {
          "internalType": "address",
          "name": "",
          "type": "address"
        }
      ],
      "stateMutability": "view",
      "type": "function"
    },
    {
      "inputs": [
        {
          "internalType": "enum Survey.Vote",
          "name": "_vote",
          "type": "uint8"
        }
      ],
      "name": "reviewAnswers",
      "outputs": [],
      "stateMutability": "nonpayable",
      "type": "function"
    },
    {
      "inputs": [],
      "name": "reviewsNeeded",
      "outputs": [
        {
          "internalType": "uint256",
          "name": "",
          "type": "uint256"
        }
      ],
      "stateMutability": "view",
      "type": "function"
    },
    {
      "inputs": [
        {
          "internalType": "string[]",
          "name": "_questions",
          "type": "string[]"
        }
      ],
      "name": "setQuestions",
      "outputs": [],
      "stateMutability": "nonpayable",
      "type": "function"
    },
    {
      "inputs": [],
      "name": "stage",
      "outputs": [
        {
          "internalType": "enum Survey.Stage",
          "name": "",
          "type": "uint8"
        }
      ],
      "stateMutability": "view",
      "type": "function"
    },
    {
      "inputs": [
        {
          "internalType": "address",
          "name": "_participant",
          "type": "address"
        },
        {
          "internalType": "uint256",
          "name": "_questionNr",
          "type": "uint256"
        }
      ],
      "name": "viewAnswers",
      "outputs": [
        {
          "internalType": "string",
          "name": "",
          "type": "string"
        }
      ],
      "stateMutability": "view",
      "type": "function"
    }
  ],
  "bytecode": "0x608060405234801561001057600080fd5b5061dead600860006101000a81548173ffffffffffffffffffffffffffffffffffffffff021916908373ffffffffffffffffffffffffffffffffffffffff160217905550613ec3806100636000396000f3fe608060405234801561001057600080fd5b50600436106101425760003560e01c80636cd9258d116100b8578063c627278f1161007c578063c627278f14610331578063ca4b6e281461034d578063d3092da91461036b578063e0de0c681461039b578063eabb08b6146103cb578063fcaa7664146103e957610142565b80636cd9258d146102af57806379a84e29146102cd578063896e7588146102d75780638da5cb5b146102f5578063c040e6b81461031357610142565b806331b1b9781161010a57806331b1b978146101d95780633ad4f8991461020957806344a85d7914610225578063541640ae146102555780635aa68ac014610273578063614a66141461029157610142565b806306fdde03146101475780631e7fea2014610165578063235f6d33146101815780632515c8b21461019f5780633197cbb6146101bb575b600080fd5b61014f610407565b60405161015c9190612bdc565b60405180910390f35b61017f600480360381019061017a9190612d7d565b610495565b005b61018961067f565b6040516101969190612f04565b60405180910390f35b6101b960048036038101906101b49190612f4b565b6107df565b005b6101c3610c91565b6040516101d09190612f87565b60405180910390f35b6101f360048036038101906101ee9190612fa2565b610c97565b6040516102009190612bdc565b60405180910390f35b610223600480360381019061021e919061302f565b610d43565b005b61023f600480360381019061023a91906130a8565b611220565b60405161024c91906130e4565b60405180910390f35b61025d61128c565b60405161026a9190612f87565b60405180910390f35b61027b611292565b6040516102889190612f87565b60405180910390f35b6102996112a2565b6040516102a6919061315e565b60405180910390f35b6102b76112c6565b6040516102c49190612f87565b60405180910390f35b6102d56112cc565b005b6102df611448565b6040516102ec9190612f87565b60405180910390f35b6102fd61144e565b60405161030a91906130e4565b60405180910390f35b61031b611474565b60405161032891906131f0565b60405180910390f35b61034b600480360381019061034691906132ec565b611487565b005b610355611627565b60405161036291906130e4565b60405180910390f35b61038560048036038101906103809190613335565b6118cf565b6040516103929190612bdc565b60405180910390f35b6103b560048036038101906103b091906130a8565b611a32565b6040516103c29190612f87565b60405180910390f35b6103d3611d7f565b6040516103e09190612f87565b60405180910390f35b6103f1611d85565b6040516103fe9190612f87565b60405180910390f35b60018054610414906133a4565b80601f0160208091040260200160405190810160405280929190818152602001828054610440906133a4565b801561048d5780601f106104625761010080835404028352916020019161048d565b820191906000526020600020905b81548152906001019060200180831161047057829003601f168201915b505050505081565b600073ffffffffffffffffffffffffffffffffffffffff16600860009054906101000a900473ffffffffffffffffffffffffffffffffffffffff1673ffffffffffffffffffffffffffffffffffffffff1614610526576040517f08c379a000000000000000000000000000000000000000000000000000000000815260040161051d90613421565b60405180910390fd5b33600860006101000a81548173ffffffffffffffffffffffffffffffffffffffff021916908373ffffffffffffffffffffffffffffffffffffffff160217905550846001908161057691906135e3565b508360038190555082600581905550816004819055506064601e8261059b91906136e4565b6105a5919061376d565b600681905550600654816105b9919061379e565b60078190555060006009819055506000602160006101000a81548160ff021916908360038111156105ed576105ec613179565b5b0217905550336000806101000a81548173ffffffffffffffffffffffffffffffffffffffff021916908373ffffffffffffffffffffffffffffffffffffffff1602179055507f273467821f33675618854603ef917ebcec8a1a39f95c43d5564ed1aefab870b3602160009054906101000a900460ff1660405161067091906131f0565b60405180910390a15050505050565b60603373ffffffffffffffffffffffffffffffffffffffff16600860009054906101000a900473ffffffffffffffffffffffffffffffffffffffff1673ffffffffffffffffffffffffffffffffffffffff1614610711576040517f08c379a00000000000000000000000000000000000000000000000000000000081526004016107089061381e565b60405180910390fd5b60038081111561072457610723613179565b5b602160009054906101000a900460ff16600381111561074657610745613179565b5b1461075057600080fd5b600a6003018054806020026020016040519081016040528092919081815260200182805480156107d557602002820191906000526020600020905b8160009054906101000a900473ffffffffffffffffffffffffffffffffffffffff1673ffffffffffffffffffffffffffffffffffffffff168152602001906001019080831161078b575b5050505050905090565b6000339050600260038111156107f8576107f7613179565b5b602160009054906101000a900460ff16600381111561081a57610819613179565b5b1461085a576040517f08c379a00000000000000000000000000000000000000000000000000000000081526004016108519061388a565b60405180910390fd5b6000600a60120160008373ffffffffffffffffffffffffffffffffffffffff1673ffffffffffffffffffffffffffffffffffffffff16815260200190815260200160002060009054906101000a900473ffffffffffffffffffffffffffffffffffffffff169050600a600d0160008273ffffffffffffffffffffffffffffffffffffffff1673ffffffffffffffffffffffffffffffffffffffff16815260200190815260200160002060009054906101000a900460ff1615610951576040517f08c379a00000000000000000000000000000000000000000000000000000000081526004016109489061391c565b60405180910390fd5b600a60140160008273ffffffffffffffffffffffffffffffffffffffff1673ffffffffffffffffffffffffffffffffffffffff16815260200190815260200160002060008460048111156109a8576109a7613179565b5b60048111156109ba576109b9613179565b5b8152602001908152602001600020829080600181540180825580915050600190039060005260206000200160009091909190916101000a81548173ffffffffffffffffffffffffffffffffffffffff021916908373ffffffffffffffffffffffffffffffffffffffff1602179055506001600a60150160008373ffffffffffffffffffffffffffffffffffffffff1673ffffffffffffffffffffffffffffffffffffffff1681526020019081526020016000206000828254610a7c919061393c565b9250508190555082600a60100160008473ffffffffffffffffffffffffffffffffffffffff1673ffffffffffffffffffffffffffffffffffffffff16815260200190815260200160002060006101000a81548160ff02191690836004811115610ae857610ae7613179565b5b02179055506001600a600b0160008473ffffffffffffffffffffffffffffffffffffffff1673ffffffffffffffffffffffffffffffffffffffff16815260200190815260200160002060006101000a81548160ff02191690831515021790555060008054906101000a900473ffffffffffffffffffffffffffffffffffffffff1673ffffffffffffffffffffffffffffffffffffffff1663b1d23bdc836040518263ffffffff1660e01b8152600401610ba191906130e4565b600060405180830381600087803b158015610bbb57600080fd5b505af1158015610bcf573d6000803e3d6000fd5b50505050600454600a60150160008373ffffffffffffffffffffffffffffffffffffffff1673ffffffffffffffffffffffffffffffffffffffff1681526020019081526020016000205410610c8c576001600a600d0160008373ffffffffffffffffffffffffffffffffffffffff1673ffffffffffffffffffffffffffffffffffffffff16815260200190815260200160002060006101000a81548160ff021916908315150217905550610c8281611f2a565b610c8b816121e0565b5b505050565b60055481565b60028181548110610ca757600080fd5b906000526020600020016000915090508054610cc2906133a4565b80601f0160208091040260200160405190810160405280929190818152602001828054610cee906133a4565b8015610d3b5780601f10610d1057610100808354040283529160200191610d3b565b820191906000526020600020905b815481529060010190602001808311610d1e57829003601f168201915b505050505081565b6000339050600a800160008273ffffffffffffffffffffffffffffffffffffffff1673ffffffffffffffffffffffffffffffffffffffff16815260200190815260200160002060009054906101000a900460ff1615610dd7576040517f08c379a0000000000000000000000000000000000000000000000000000000008152600401610dce906139bc565b60405180910390fd5b600a600001805490508383905014610e24576040517f08c379a0000000000000000000000000000000000000000000000000000000008152600401610e1b90613a4e565b60405180910390fd5b600354600a6001018054905010610e70576040517f08c379a0000000000000000000000000000000000000000000000000000000008152600401610e6790613aba565b60405180910390fd5b6001600a800160008373ffffffffffffffffffffffffffffffffffffffff1673ffffffffffffffffffffffffffffffffffffffff16815260200190815260200160002060006101000a81548160ff021916908315150217905550600a600101819080600181540180825580915050600190039060005260206000200160009091909190916101000a81548173ffffffffffffffffffffffffffffffffffffffff021916908373ffffffffffffffffffffffffffffffffffffffff16021790555060005b83839050811015610fd757838382818110610f5157610f50613ada565b5b9050602002810190610f639190613b18565b600a600e0160008573ffffffffffffffffffffffffffffffffffffffff1673ffffffffffffffffffffffffffffffffffffffff16815260200190815260200160002060008481526020019081526020016000209182610fc3929190613b86565b508080610fcf90613c56565b915050610f33565b50600a60020180549050600a600c0160008373ffffffffffffffffffffffffffffffffffffffff1673ffffffffffffffffffffffffffffffffffffffff16815260200190815260200160002081905550600a600201819080600181540180825580915050600190039060005260206000200160009091909190916101000a81548173ffffffffffffffffffffffffffffffffffffffff021916908373ffffffffffffffffffffffffffffffffffffffff16021790555060008054906101000a900473ffffffffffffffffffffffffffffffffffffffff1673ffffffffffffffffffffffffffffffffffffffff1663b1d23bdc826040518263ffffffff1660e01b81526004016110e691906130e4565b600060405180830381600087803b15801561110057600080fd5b505af1158015611114573d6000803e3d6000fd5b50505050600354600a600101805490501061121b576002602160006101000a81548160ff0219169083600381111561114f5761114e613179565b5b021790555060008054906101000a900473ffffffffffffffffffffffffffffffffffffffff1673ffffffffffffffffffffffffffffffffffffffff166362c5f1356040518163ffffffff1660e01b8152600401600060405180830381600087803b1580156111bc57600080fd5b505af11580156111d0573d6000803e3d6000fd5b505050507f273467821f33675618854603ef917ebcec8a1a39f95c43d5564ed1aefab870b3602160009054906101000a900460ff1660405161121291906131f0565b60405180910390a15b505050565b6000600a60120160008373ffffffffffffffffffffffffffffffffffffffff1673ffffffffffffffffffffffffffffffffffffffff16815260200190815260200160002060009054906101000a900473ffffffffffffffffffffffffffffffffffffffff169050919050565b60075481565b6000600a60010180549050905090565b60008054906101000a900473ffffffffffffffffffffffffffffffffffffffff1681565b60045481565b3373ffffffffffffffffffffffffffffffffffffffff16600860009054906101000a900473ffffffffffffffffffffffffffffffffffffffff1673ffffffffffffffffffffffffffffffffffffffff161461135c576040517f08c379a00000000000000000000000000000000000000000000000000000000081526004016113539061381e565b60405180910390fd5b60038081111561136f5761136e613179565b5b602160009054906101000a900460ff16600381111561139157611390613179565b5b0361139b57600080fd5b60008054906101000a900473ffffffffffffffffffffffffffffffffffffffff1673ffffffffffffffffffffffffffffffffffffffff166372c258a06040518163ffffffff1660e01b8152600401600060405180830381600087803b15801561140357600080fd5b505af1158015611417573d6000803e3d6000fd5b505050506003602160006101000a81548160ff0219169083600381111561144157611440613179565b5b0217905550565b60035481565b600860009054906101000a900473ffffffffffffffffffffffffffffffffffffffff1681565b602160009054906101000a900460ff1681565b3373ffffffffffffffffffffffffffffffffffffffff16600860009054906101000a900473ffffffffffffffffffffffffffffffffffffffff1673ffffffffffffffffffffffffffffffffffffffff1614611517576040517f08c379a000000000000000000000000000000000000000000000000000000000815260040161150e9061381e565b60405180910390fd5b600860149054906101000a900460ff1615611567576040517f08c379a000000000000000000000000000000000000000000000000000000000815260040161155e90613cea565b60405180910390fd5b6001600860146101000a81548160ff02191690831515021790555080600a600001908051906020019061159b929190612a72565b5080600290805190602001906115b2929190612a72565b506001602160006101000a81548160ff021916908360038111156115d9576115d8613179565b5b02179055507f273467821f33675618854603ef917ebcec8a1a39f95c43d5564ed1aefab870b3602160009054906101000a900460ff1660405161161c91906131f0565b60405180910390a150565b6000803390506002600381111561164157611640613179565b5b602160009054906101000a900460ff16600381111561166357611662613179565b5b146116a3576040517f08c379a000000000000000000000000000000000000000000000000000000000815260040161169a9061388a565b60405180910390fd5b600a60160160008273ffffffffffffffffffffffffffffffffffffffff1673ffffffffffffffffffffffffffffffffffffffff16815260200190815260200160002060009054906101000a900460ff1615611733576040517f08c379a000000000000000000000000000000000000000000000000000000000815260040161172a90613d56565b60405180910390fd5b6001600a60160160008373ffffffffffffffffffffffffffffffffffffffff1673ffffffffffffffffffffffffffffffffffffffff16815260200190815260200160002060006101000a81548160ff02191690831515021790555060006117a1600a600201805490506123c1565b9050600a60020181815481106117ba576117b9613ada565b5b9060005260206000200160009054906101000a900473ffffffffffffffffffffffffffffffffffffffff16600a60120160008473ffffffffffffffffffffffffffffffffffffffff1673ffffffffffffffffffffffffffffffffffffffff16815260200190815260200160002060006101000a81548173ffffffffffffffffffffffffffffffffffffffff021916908373ffffffffffffffffffffffffffffffffffffffff160217905550600a60120160008373ffffffffffffffffffffffffffffffffffffffff1673ffffffffffffffffffffffffffffffffffffffff16815260200190815260200160002060009054906101000a900473ffffffffffffffffffffffffffffffffffffffff169250505090565b60606003808111156118e4576118e3613179565b5b602160009054906101000a900460ff16600381111561190657611905613179565b5b148061194557506002600381111561192157611920613179565b5b602160009054906101000a900460ff16600381111561194357611942613179565b5b145b61194e57600080fd5b600a600e0160008473ffffffffffffffffffffffffffffffffffffffff1673ffffffffffffffffffffffffffffffffffffffff168152602001908152602001600020600083815260200190815260200160002080546119ac906133a4565b80601f01602080910402602001604051908101604052809291908181526020018280546119d8906133a4565b8015611a255780601f106119fa57610100808354040283529160200191611a25565b820191906000526020600020905b815481529060010190602001808311611a0857829003601f168201915b5050505050905092915050565b60003373ffffffffffffffffffffffffffffffffffffffff16600860009054906101000a900473ffffffffffffffffffffffffffffffffffffffff1673ffffffffffffffffffffffffffffffffffffffff1614611ac4576040517f08c379a0000000000000000000000000000000000000000000000000000000008152600401611abb9061381e565b60405180910390fd5b600380811115611ad757611ad6613179565b5b602160009054906101000a900460ff166003811115611af957611af8613179565b5b14611b0357600080fd5b600a800160008373ffffffffffffffffffffffffffffffffffffffff1673ffffffffffffffffffffffffffffffffffffffff16815260200190815260200160002060009054906101000a900460ff1615611bbe57611bb7611bb2600a600f0160008573ffffffffffffffffffffffffffffffffffffffff1673ffffffffffffffffffffffffffffffffffffffff16815260200190815260200160002060009054906101000a900460ff1661241f565b61252f565b9050611d7a565b600a600b0160008373ffffffffffffffffffffffffffffffffffffffff1673ffffffffffffffffffffffffffffffffffffffff16815260200190815260200160002060009054906101000a900460ff1615611d75576000611c6d600a60100160008573ffffffffffffffffffffffffffffffffffffffff1673ffffffffffffffffffffffffffffffffffffffff16815260200190815260200160002060009054906101000a900460ff1661241f565b90506000600a60120160008573ffffffffffffffffffffffffffffffffffffffff1673ffffffffffffffffffffffffffffffffffffffff16815260200190815260200160002060009054906101000a900473ffffffffffffffffffffffffffffffffffffffff1690506000611d30600a600f0160008473ffffffffffffffffffffffffffffffffffffffff1673ffffffffffffffffffffffffffffffffffffffff16815260200190815260200160002060009054906101000a900460ff1661241f565b9050808310611d5757611d4d8184611d48919061379e565b6125d5565b9350505050611d7a565b611d6b8382611d66919061379e565b6125d5565b9350505050611d7a565b600090505b919050565b60065481565b60003373ffffffffffffffffffffffffffffffffffffffff16600860009054906101000a900473ffffffffffffffffffffffffffffffffffffffff1673ffffffffffffffffffffffffffffffffffffffff1614611e17576040517f08c379a0000000000000000000000000000000000000000000000000000000008152600401611e0e9061381e565b60405180910390fd5b60006003811115611e2b57611e2a613179565b5b602160009054906101000a900460ff166003811115611e4d57611e4c613179565b5b03611e5b5760009050611f27565b60016003811115611e6f57611e6e613179565b5b602160009054906101000a900460ff166003811115611e9157611e90613179565b5b03611e9f5760019050611f27565b60026003811115611eb357611eb2613179565b5b602160009054906101000a900460ff166003811115611ed557611ed4613179565b5b03611ee35760029050611f27565b600380811115611ef657611ef5613179565b5b602160009054906101000a900460ff166003811115611f1857611f17613179565b5b03611f265760039050611f27565b5b90565b6000600a600c0160008373ffffffffffffffffffffffffffffffffffffffff1673ffffffffffffffffffffffffffffffffffffffff1681526020019081526020016000205490506001600a60020180549050611f86919061379e565b811015612090576000600a6002016001600a60020180549050611fa9919061379e565b81548110611fba57611fb9613ada565b5b9060005260206000200160009054906101000a900473ffffffffffffffffffffffffffffffffffffffff16905081600a600c0160008373ffffffffffffffffffffffffffffffffffffffff1673ffffffffffffffffffffffffffffffffffffffff1681526020019081526020016000208190555080600a600201838154811061204657612045613ada565b5b9060005260206000200160006101000a81548173ffffffffffffffffffffffffffffffffffffffff021916908373ffffffffffffffffffffffffffffffffffffffff160217905550505b600a6002018054806120a5576120a4613d76565b5b6001900381819060005260206000200160006101000a81549073ffffffffffffffffffffffffffffffffffffffff021916905590556000600a60020180549050036121dc576003602160006101000a81548160ff021916908360038111156121105761210f613179565b5b021790555060008054906101000a900473ffffffffffffffffffffffffffffffffffffffff1673ffffffffffffffffffffffffffffffffffffffff166372c258a06040518163ffffffff1660e01b8152600401600060405180830381600087803b15801561217d57600080fd5b505af1158015612191573d6000803e3d6000fd5b505050507f273467821f33675618854603ef917ebcec8a1a39f95c43d5564ed1aefab870b3602160009054906101000a900460ff166040516121d391906131f0565b60405180910390a15b5050565b6121e98161265a565b600a60130160008373ffffffffffffffffffffffffffffffffffffffff1673ffffffffffffffffffffffffffffffffffffffff16815260200190815260200160002081905550600a600f60045461224091906136e4565b61224a919061376d565b600a60130160008373ffffffffffffffffffffffffffffffffffffffff1673ffffffffffffffffffffffffffffffffffffffff1681526020019081526020016000205411156122fe57600a600301819080600181540180825580915050600190039060005260206000200160009091909190916101000a81548173ffffffffffffffffffffffffffffffffffffffff021916908373ffffffffffffffffffffffffffffffffffffffff160217905550612365565b600a600401819080600181540180825580915050600190039060005260206000200160009091909190916101000a81548173ffffffffffffffffffffffffffffffffffffffff021916908373ffffffffffffffffffffffffffffffffffffffff1602179055505b6123be81600a600f0160008473ffffffffffffffffffffffffffffffffffffffff1673ffffffffffffffffffffffffffffffffffffffff16815260200190815260200160002060009054906101000a900460ff166128b9565b50565b6000600960008154809291906123d690613c56565b9190505550814233600954856040516020016123f59493929190613e0e565b6040516020818303038152906040528051906020012060001c6124189190613e5c565b9050919050565b600060048081111561243457612433613179565b5b82600481111561244757612446613179565b5b03612455576004905061252a565b6003600481111561246957612468613179565b5b82600481111561247c5761247b613179565b5b0361248a576003905061252a565b6002600481111561249e5761249d613179565b5b8260048111156124b1576124b0613179565b5b036124bf576002905061252a565b600160048111156124d3576124d2613179565b5b8260048111156124e6576124e5613179565b5b036124f4576001905061252a565b6000600481111561250857612507613179565b5b82600481111561251b5761251a613179565b5b03612529576000905061252a565b5b919050565b600080600a60090154600a60080154600261254a91906136e4565b600a60070154600461255c91906136e4565b612566919061393c565b612570919061393c565b60065461257d919061376d565b90506004830361259c5780600461259491906136e4565b9150506125d0565b600383036125b9578060026125b191906136e4565b9150506125d0565b600283036125ca57809150506125d0565b60009150505b919050565b6000806064600a60060154601e6125ec91906136e4565b6125f6919061376d565b600a60050154612606919061393c565b600754612613919061376d565b9050600083036126265780915050612655565b6001830361264f576064601e8261263d91906136e4565b612647919061376d565b915050612655565b60009150505b919050565b6000806000905060005b60058110156127255780600a60140160008673ffffffffffffffffffffffffffffffffffffffff1673ffffffffffffffffffffffffffffffffffffffff16815260200190815260200160002060008360048111156126c5576126c4613179565b5b60048111156126d7576126d6613179565b5b60048111156126e9576126e8613179565b5b81526020019081526020016000208054905061270591906136e4565b82612710919061393c565b9150808061271d90613c56565b915050612664565b50600454600a8261273691906136e4565b612740919061376d565b90506000600a602360045461275591906136e4565b61275f919061376d565b82106127895760049050600a600701600081548092919061277f90613c56565b9190505550612845565b600a601960045461279a91906136e4565b6127a4919061376d565b82106127ce5760039050600a60080160008154809291906127c490613c56565b9190505550612844565b600a600f6004546127df91906136e4565b6127e9919061376d565b82106128135760029050600a600901600081548092919061280990613c56565b9190505550612843565b600a600560045461282491906136e4565b61282e919061376d565b821061283d5760019050612842565b600090505b5b5b5b80600a600f0160008673ffffffffffffffffffffffffffffffffffffffff1673ffffffffffffffffffffffffffffffffffffffff16815260200190815260200160002060006101000a81548160ff021916908360048111156128aa576128a9613179565b5b02179055508192505050919050565b600a60140160008373ffffffffffffffffffffffffffffffffffffffff1673ffffffffffffffffffffffffffffffffffffffff16815260200190815260200160002060008260048111156129105761290f613179565b5b600481111561292257612921613179565b5b815260200190815260200160002080549050600a6005016000828254612948919061393c565b92505081905550600081600481111561296457612963613179565b5b905060005b6005811015612a6c5760008260ff16821115612995578260ff168261298e919061379e565b90506129a7565b818360ff166129a4919061379e565b90505b60018103612a5857600a60140160008673ffffffffffffffffffffffffffffffffffffffff1673ffffffffffffffffffffffffffffffffffffffff1681526020019081526020016000206000836004811115612a0657612a05613179565b5b6004811115612a1857612a17613179565b5b6004811115612a2a57612a29613179565b5b815260200190815260200160002080549050600a6006016000828254612a50919061393c565b925050819055505b508080612a6490613c56565b915050612969565b50505050565b828054828255906000526020600020908101928215612aba579160200282015b82811115612ab9578251829081612aa991906135e3565b5091602001919060010190612a92565b5b509050612ac79190612acb565b5090565b5b80821115612aeb5760008181612ae29190612aef565b50600101612acc565b5090565b508054612afb906133a4565b6000825580601f10612b0d5750612b2c565b601f016020900490600052602060002090810190612b2b9190612b2f565b5b50565b5b80821115612b48576000816000905550600101612b30565b5090565b600081519050919050565b600082825260208201905092915050565b60005b83811015612b86578082015181840152602081019050612b6b565b60008484015250505050565b6000601f19601f8301169050919050565b6000612bae82612b4c565b612bb88185612b57565b9350612bc8818560208601612b68565b612bd181612b92565b840191505092915050565b60006020820190508181036000830152612bf68184612ba3565b905092915050565b6000604051905090565b600080fd5b600080fd5b600080fd5b600080fd5b7f4e487b7100000000000000000000000000000000000000000000000000000000600052604160045260246000fd5b612c5482612b92565b810181811067ffffffffffffffff82111715612c7357612c72612c1c565b5b80604052505050565b6000612c86612bfe565b9050612c928282612c4b565b919050565b600067ffffffffffffffff821115612cb257612cb1612c1c565b5b612cbb82612b92565b9050602081019050919050565b82818337600083830152505050565b6000612cea612ce584612c97565b612c7c565b905082815260208101848484011115612d0657612d05612c17565b5b612d11848285612cc8565b509392505050565b600082601f830112612d2e57612d2d612c12565b5b8135612d3e848260208601612cd7565b91505092915050565b6000819050919050565b612d5a81612d47565b8114612d6557600080fd5b50565b600081359050612d7781612d51565b92915050565b600080600080600060a08688031215612d9957612d98612c08565b5b600086013567ffffffffffffffff811115612db757612db6612c0d565b5b612dc388828901612d19565b9550506020612dd488828901612d68565b9450506040612de588828901612d68565b9350506060612df688828901612d68565b9250506080612e0788828901612d68565b9150509295509295909350565b600081519050919050565b600082825260208201905092915050565b6000819050602082019050919050565b600073ffffffffffffffffffffffffffffffffffffffff82169050919050565b6000612e6b82612e40565b9050919050565b612e7b81612e60565b82525050565b6000612e8d8383612e72565b60208301905092915050565b6000602082019050919050565b6000612eb182612e14565b612ebb8185612e1f565b9350612ec683612e30565b8060005b83811015612ef7578151612ede8882612e81565b9750612ee983612e99565b925050600181019050612eca565b5085935050505092915050565b60006020820190508181036000830152612f1e8184612ea6565b905092915050565b60058110612f3357600080fd5b50565b600081359050612f4581612f26565b92915050565b600060208284031215612f6157612f60612c08565b5b6000612f6f84828501612f36565b91505092915050565b612f8181612d47565b82525050565b6000602082019050612f9c6000830184612f78565b92915050565b600060208284031215612fb857612fb7612c08565b5b6000612fc684828501612d68565b91505092915050565b600080fd5b600080fd5b60008083601f840112612fef57612fee612c12565b5b8235905067ffffffffffffffff81111561300c5761300b612fcf565b5b60208301915083602082028301111561302857613027612fd4565b5b9250929050565b6000806020838503121561304657613045612c08565b5b600083013567ffffffffffffffff81111561306457613063612c0d565b5b61307085828601612fd9565b92509250509250929050565b61308581612e60565b811461309057600080fd5b50565b6000813590506130a28161307c565b92915050565b6000602082840312156130be576130bd612c08565b5b60006130cc84828501613093565b91505092915050565b6130de81612e60565b82525050565b60006020820190506130f960008301846130d5565b92915050565b6000819050919050565b600061312461311f61311a84612e40565b6130ff565b612e40565b9050919050565b600061313682613109565b9050919050565b60006131488261312b565b9050919050565b6131588161313d565b82525050565b6000602082019050613173600083018461314f565b92915050565b7f4e487b7100000000000000000000000000000000000000000000000000000000600052602160045260246000fd5b600481106131b9576131b8613179565b5b50565b60008190506131ca826131a8565b919050565b60006131da826131bc565b9050919050565b6131ea816131cf565b82525050565b600060208201905061320560008301846131e1565b92915050565b600067ffffffffffffffff82111561322657613225612c1c565b5b602082029050602081019050919050565b600061324a6132458461320b565b612c7c565b9050808382526020820190506020840283018581111561326d5761326c612fd4565b5b835b818110156132b457803567ffffffffffffffff81111561329257613291612c12565b5b80860161329f8982612d19565b8552602085019450505060208101905061326f565b5050509392505050565b600082601f8301126132d3576132d2612c12565b5b81356132e3848260208601613237565b91505092915050565b60006020828403121561330257613301612c08565b5b600082013567ffffffffffffffff8111156133205761331f612c0d565b5b61332c848285016132be565b91505092915050565b6000806040838503121561334c5761334b612c08565b5b600061335a85828601613093565b925050602061336b85828601612d68565b9150509250929050565b7f4e487b7100000000000000000000000000000000000000000000000000000000600052602260045260246000fd5b600060028204905060018216806133bc57607f821691505b6020821081036133cf576133ce613375565b5b50919050565b7f466f7262696464656e0000000000000000000000000000000000000000000000600082015250565b600061340b600983612b57565b9150613416826133d5565b602082019050919050565b6000602082019050818103600083015261343a816133fe565b9050919050565b60008190508160005260206000209050919050565b60006020601f8301049050919050565b600082821b905092915050565b6000600883026134a37fffffffffffffffffffffffffffffffffffffffffffffffffffffffffffffffff82613466565b6134ad8683613466565b95508019841693508086168417925050509392505050565b60006134e06134db6134d684612d47565b6130ff565b612d47565b9050919050565b6000819050919050565b6134fa836134c5565b61350e613506826134e7565b848454613473565b825550505050565b600090565b613523613516565b61352e8184846134f1565b505050565b5b818110156135525761354760008261351b565b600181019050613534565b5050565b601f8211156135975761356881613441565b61357184613456565b81016020851015613580578190505b61359461358c85613456565b830182613533565b50505b505050565b600082821c905092915050565b60006135ba6000198460080261359c565b1980831691505092915050565b60006135d383836135a9565b9150826002028217905092915050565b6135ec82612b4c565b67ffffffffffffffff81111561360557613604612c1c565b5b61360f82546133a4565b61361a828285613556565b600060209050601f83116001811461364d576000841561363b578287015190505b61364585826135c7565b8655506136ad565b601f19841661365b86613441565b60005b828110156136835784890151825560018201915060208501945060208101905061365e565b868310156136a0578489015161369c601f8916826135a9565b8355505b6001600288020188555050505b505050505050565b7f4e487b7100000000000000000000000000000000000000000000000000000000600052601160045260246000fd5b60006136ef82612d47565b91506136fa83612d47565b9250817fffffffffffffffffffffffffffffffffffffffffffffffffffffffffffffffff0483118215151615613733576137326136b5565b5b828202905092915050565b7f4e487b7100000000000000000000000000000000000000000000000000000000600052601260045260246000fd5b600061377882612d47565b915061378383612d47565b9250826137935761379261373e565b5b828204905092915050565b60006137a982612d47565b91506137b483612d47565b92508282039050818111156137cc576137cb6136b5565b5b92915050565b7f4e6f7420616c6c6f77656420746f2063616c6c207468652066756e6374696f6e600082015250565b6000613808602083612b57565b9150613813826137d2565b602082019050919050565b60006020820190508181036000830152613837816137fb565b9050919050565b7f537572766579206e6f7420696e20726576696577207374616765000000000000600082015250565b6000613874601a83612b57565b915061387f8261383e565b602082019050919050565b600060208201905081810360008301526138a381613867565b9050919050565b7f4d6178696d756d206e756d626572206f66207265766965777320616c7265616460008201527f79207265616368656420666f7220746865207061727469636970616e74000000602082015250565b6000613906603d83612b57565b9150613911826138aa565b604082019050919050565b60006020820190508181036000830152613935816138f9565b9050919050565b600061394782612d47565b915061395283612d47565b925082820190508082111561396a576139696136b5565b5b92915050565b7f416c726561647920616e73776572656400000000000000000000000000000000600082015250565b60006139a6601083612b57565b91506139b182613970565b602082019050919050565b600060208201905081810360008301526139d581613999565b9050919050565b7f4e756d626572206f6620616e7377657273206861766520746f2062652065717560008201527f616c20746f20746865206e756d626572206f66207175657374696f6e73000000602082015250565b6000613a38603d83612b57565b9150613a43826139dc565b604082019050919050565b60006020820190508181036000830152613a6781613a2b565b9050919050565b7f5061727469636970616e74206c696d6974207265616368656400000000000000600082015250565b6000613aa4601983612b57565b9150613aaf82613a6e565b602082019050919050565b60006020820190508181036000830152613ad381613a97565b9050919050565b7f4e487b7100000000000000000000000000000000000000000000000000000000600052603260045260246000fd5b600080fd5b600080fd5b600080fd5b60008083356001602003843603038112613b3557613b34613b09565b5b80840192508235915067ffffffffffffffff821115613b5757613b56613b0e565b5b602083019250600182023603831315613b7357613b72613b13565b5b509250929050565b600082905092915050565b613b908383613b7b565b67ffffffffffffffff811115613ba957613ba8612c1c565b5b613bb382546133a4565b613bbe828285613556565b6000601f831160018114613bed5760008415613bdb578287013590505b613be585826135c7565b865550613c4d565b601f198416613bfb86613441565b60005b82811015613c2357848901358255600182019150602085019450602081019050613bfe565b86831015613c405784890135613c3c601f8916826135a9565b8355505b6001600288020188555050505b50505050505050565b6000613c6182612d47565b91507fffffffffffffffffffffffffffffffffffffffffffffffffffffffffffffffff8203613c9357613c926136b5565b5b600182019050919050565b7f5175657374696f6e7320616c7265616479207365740000000000000000000000600082015250565b6000613cd4601583612b57565b9150613cdf82613c9e565b602082019050919050565b60006020820190508181036000830152613d0381613cc7565b9050919050565b7f416c72656164792061737369676e656400000000000000000000000000000000600082015250565b6000613d40601083612b57565b9150613d4b82613d0a565b602082019050919050565b60006020820190508181036000830152613d6f81613d33565b9050919050565b7f4e487b7100000000000000000000000000000000000000000000000000000000600052603160045260246000fd5b6000819050919050565b613dc0613dbb82612d47565b613da5565b82525050565b60008160601b9050919050565b6000613dde82613dc6565b9050919050565b6000613df082613dd3565b9050919050565b613e08613e0382612e60565b613de5565b82525050565b6000613e1a8287613daf565b602082019150613e2a8286613df7565b601482019150613e3a8285613daf565b602082019150613e4a8284613daf565b60208201915081905095945050505050565b6000613e6782612d47565b9150613e7283612d47565b925082613e8257613e8161373e565b5b82820690509291505056fea2646970667358221220f8467843a885f7022c1bc1ab2e048bc192cde3e552e6284e39603bdb8ee3389364736f6c63430008100033",
  "linkReferences": {},
  "deployedLinkReferences": {}
}