{
  "_format": "hh-sol-artifact-1",
  "contractName": "Survey",
  "sourceName": "contracts/Survey.sol",
  "abi": [
    {
      "inputs": [],
      "stateMutability": "nonpayable",
      "type": "constructor"
    },
    {
      "anonymous": false,
      "inputs": [
        {
          "indexed": false,
          "internalType": "enum Survey.Stage",
          "name": "",
          "type": "uint8"
        }
      ],
      "name": "StageChanged",
      "type": "event"
    },
    {
      "inputs": [
        {
          "internalType": "string[]",
          "name": "_answers",
          "type": "string[]"
        }
      ],
      "name": "answerQuestions",
      "outputs": [],
      "stateMutability": "nonpayable",
      "type": "function"
    },
    {
      "inputs": [
        {
          "internalType": "address",
          "name": "_beneficiary",
          "type": "address"
        }
      ],
      "name": "calculateEarnings",
      "outputs": [
        {
          "internalType": "uint256",
          "name": "earnings",
          "type": "uint256"
        }
      ],
      "stateMutability": "view",
      "type": "function"
    },
    {
      "inputs": [],
      "name": "capitalParticipants",
      "outputs": [
        {
          "internalType": "uint256",
          "name": "",
          "type": "uint256"
        }
      ],
      "stateMutability": "view",
      "type": "function"
    },
    {
      "inputs": [],
      "name": "capitalReview",
      "outputs": [
        {
          "internalType": "uint256",
          "name": "",
          "type": "uint256"
        }
      ],
      "stateMutability": "view",
      "type": "function"
    },
    {
      "inputs": [],
      "name": "closeSurvey",
      "outputs": [],
      "stateMutability": "nonpayable",
      "type": "function"
    },
    {
      "inputs": [],
      "name": "endTime",
      "outputs": [
        {
          "internalType": "uint256",
          "name": "",
          "type": "uint256"
        }
      ],
      "stateMutability": "view",
      "type": "function"
    },
    {
      "inputs": [],
      "name": "factoryC",
      "outputs": [
        {
          "internalType": "contract IFactorContract",
          "name": "",
          "type": "address"
        }
      ],
      "stateMutability": "view",
      "type": "function"
    },
    {
      "inputs": [],
      "name": "getStage",
      "outputs": [
        {
          "internalType": "uint256",
          "name": "currentStage",
          "type": "uint256"
        }
      ],
      "stateMutability": "view",
      "type": "function"
    },
    {
      "inputs": [],
      "name": "getValidAnswers",
      "outputs": [
        {
          "internalType": "address[]",
          "name": "",
          "type": "address[]"
        }
      ],
      "stateMutability": "view",
      "type": "function"
    },
    {
      "inputs": [
        {
          "internalType": "string",
          "name": "_name",
          "type": "string"
        },
        {
          "internalType": "uint256",
          "name": "_participants",
          "type": "uint256"
        },
        {
          "internalType": "uint256",
          "name": "_endTime",
          "type": "uint256"
        },
        {
          "internalType": "uint256",
          "name": "_reviewNeeded",
          "type": "uint256"
        },
        {
          "internalType": "uint256",
          "name": "_capital",
          "type": "uint256"
        }
      ],
      "name": "initialize",
      "outputs": [],
      "stateMutability": "nonpayable",
      "type": "function"
    },
    {
      "inputs": [],
      "name": "maxNumberOfParticipants",
      "outputs": [
        {
          "internalType": "uint256",
          "name": "",
          "type": "uint256"
        }
      ],
      "stateMutability": "view",
      "type": "function"
    },
    {
      "inputs": [],
      "name": "name",
      "outputs": [
        {
          "internalType": "string",
          "name": "",
          "type": "string"
        }
      ],
      "stateMutability": "view",
      "type": "function"
    },
    {
      "inputs": [],
      "name": "owner",
      "outputs": [
        {
          "internalType": "address",
          "name": "",
          "type": "address"
        }
      ],
      "stateMutability": "view",
      "type": "function"
    },
    {
      "inputs": [
        {
          "internalType": "uint256",
          "name": "",
          "type": "uint256"
        }
      ],
      "name": "questions",
      "outputs": [
        {
          "internalType": "string",
          "name": "",
          "type": "string"
        }
      ],
      "stateMutability": "view",
      "type": "function"
    },
    {
      "inputs": [],
      "name": "requestReview",
      "outputs": [
        {
          "internalType": "address",
          "name": "",
          "type": "address"
        }
      ],
      "stateMutability": "nonpayable",
      "type": "function"
    },
    {
      "inputs": [
        {
          "internalType": "address",
          "name": "_reviewer",
          "type": "address"
        }
      ],
      "name": "returnReviewParticipant",
      "outputs": [
        {
          "internalType": "address",
          "name": "",
          "type": "address"
        }
      ],
      "stateMutability": "view",
      "type": "function"
    },
    {
      "inputs": [
        {
          "internalType": "enum Survey.Vote",
          "name": "_vote",
          "type": "uint8"
        }
      ],
      "name": "reviewAnswers",
      "outputs": [],
      "stateMutability": "nonpayable",
      "type": "function"
    },
    {
      "inputs": [],
      "name": "reviewsNeeded",
      "outputs": [
        {
          "internalType": "uint256",
          "name": "",
          "type": "uint256"
        }
      ],
      "stateMutability": "view",
      "type": "function"
    },
    {
      "inputs": [
        {
          "internalType": "string[]",
          "name": "_questions",
          "type": "string[]"
        }
      ],
      "name": "setQuestions",
      "outputs": [],
      "stateMutability": "nonpayable",
      "type": "function"
    },
    {
      "inputs": [],
      "name": "stage",
      "outputs": [
        {
          "internalType": "enum Survey.Stage",
          "name": "",
          "type": "uint8"
        }
      ],
      "stateMutability": "view",
      "type": "function"
    },
    {
      "inputs": [
        {
          "internalType": "address",
          "name": "_participant",
          "type": "address"
        },
        {
          "internalType": "uint256",
          "name": "_questionNr",
          "type": "uint256"
        }
      ],
      "name": "viewAnswers",
      "outputs": [
        {
          "internalType": "string",
          "name": "",
          "type": "string"
        }
      ],
      "stateMutability": "view",
      "type": "function"
    }
  ],
  "bytecode": "0x608060405234801561001057600080fd5b5061dead602160006101000a81548173ffffffffffffffffffffffffffffffffffffffff021916908373ffffffffffffffffffffffffffffffffffffffff160217905550613a31806100636000396000f3fe608060405234801561001057600080fd5b50600436106101375760003560e01c80636cd9258d116100b8578063c627278f1161007c578063c627278f14610308578063ca4b6e2814610324578063d3092da914610342578063e0de0c6814610372578063eabb08b6146103a2578063fcaa7664146103c057610137565b80636cd9258d1461028657806379a84e29146102a4578063896e7588146102ae5780638da5cb5b146102cc578063c040e6b8146102ea57610137565b806331b1b978116100ff57806331b1b978146101ce5780633ad4f899146101fe57806344a85d791461021a578063541640ae1461024a578063614a66141461026857610137565b806306fdde031461013c5780631e7fea201461015a578063235f6d33146101765780632515c8b2146101945780633197cbb6146101b0575b600080fd5b6101446103de565b6040516101519190612822565b60405180910390f35b610174600480360381019061016f91906129c3565b61046c565b005b61017e6105c3565b60405161018b9190612b4a565b60405180910390f35b6101ae60048036038101906101a99190612b91565b610691565b005b6101b8610b40565b6040516101c59190612bcd565b60405180910390f35b6101e860048036038101906101e39190612be8565b610b46565b6040516101f59190612822565b60405180910390f35b61021860048036038101906102139190612c75565b610bf2565b005b610234600480360381019061022f9190612cee565b6110ce565b6040516102419190612d2a565b60405180910390f35b61025261113a565b60405161025f9190612bcd565b60405180910390f35b610270611140565b60405161027d9190612da4565b60405180910390f35b61028e611166565b60405161029b9190612bcd565b60405180910390f35b6102ac61116c565b005b6102b6611257565b6040516102c39190612bcd565b60405180910390f35b6102d461125d565b6040516102e19190612d2a565b60405180910390f35b6102f2611283565b6040516102ff9190612e36565b60405180910390f35b610322600480360381019061031d9190612f32565b611294565b005b61032c6113a1565b6040516103399190612d2a565b60405180910390f35b61035c60048036038101906103579190612f7b565b611646565b6040516103699190612822565b60405180910390f35b61038c60048036038101906103879190612cee565b6117a5565b6040516103999190612bcd565b60405180910390f35b6103aa611a61565b6040516103b79190612bcd565b60405180910390f35b6103c8611a67565b6040516103d59190612bcd565b60405180910390f35b601980546103eb90612fea565b80601f016020809104026020016040519081016040528092919081815260200182805461041790612fea565b80156104645780601f1061043957610100808354040283529160200191610464565b820191906000526020600020905b81548152906001019060200180831161044757829003601f168201915b505050505081565b33602160006101000a81548173ffffffffffffffffffffffffffffffffffffffff021916908373ffffffffffffffffffffffffffffffffffffffff16021790555084601990816104bc91906131bd565b5083601a8190555082601c8190555081601b819055506064601e826104e191906132be565b6104eb9190613347565b601d81905550601d54816104ff9190613378565b601e819055506000601f8190555060008060006101000a81548160ff0219169083600381111561053257610531612dbf565b5b021790555033602060016101000a81548173ffffffffffffffffffffffffffffffffffffffff021916908373ffffffffffffffffffffffffffffffffffffffff1602179055507f273467821f33675618854603ef917ebcec8a1a39f95c43d5564ed1aefab870b360008054906101000a900460ff166040516105b49190612e36565b60405180910390a15050505050565b60606003808111156105d8576105d7612dbf565b5b60008054906101000a900460ff1660038111156105f8576105f7612dbf565b5b1461060257600080fd5b600160030180548060200260200160405190810160405280929190818152602001828054801561068757602002820191906000526020600020905b8160009054906101000a900473ffffffffffffffffffffffffffffffffffffffff1673ffffffffffffffffffffffffffffffffffffffff168152602001906001019080831161063d575b5050505050905090565b6000339050600260038111156106aa576106a9612dbf565b5b60008054906101000a900460ff1660038111156106ca576106c9612dbf565b5b1461070a576040517f08c379a0000000000000000000000000000000000000000000000000000000008152600401610701906133f8565b60405180910390fd5b6000600160120160008373ffffffffffffffffffffffffffffffffffffffff1673ffffffffffffffffffffffffffffffffffffffff16815260200190815260200160002060009054906101000a900473ffffffffffffffffffffffffffffffffffffffff1690506001600d0160008273ffffffffffffffffffffffffffffffffffffffff1673ffffffffffffffffffffffffffffffffffffffff16815260200190815260200160002060009054906101000a900460ff1615610801576040517f08c379a00000000000000000000000000000000000000000000000000000000081526004016107f89061348a565b60405180910390fd5b600160140160008273ffffffffffffffffffffffffffffffffffffffff1673ffffffffffffffffffffffffffffffffffffffff168152602001908152602001600020600084600481111561085857610857612dbf565b5b600481111561086a57610869612dbf565b5b8152602001908152602001600020829080600181540180825580915050600190039060005260206000200160009091909190916101000a81548173ffffffffffffffffffffffffffffffffffffffff021916908373ffffffffffffffffffffffffffffffffffffffff16021790555060018060150160008373ffffffffffffffffffffffffffffffffffffffff1673ffffffffffffffffffffffffffffffffffffffff168152602001908152602001600020600082825461092b91906134aa565b9250508190555082600160100160008473ffffffffffffffffffffffffffffffffffffffff1673ffffffffffffffffffffffffffffffffffffffff16815260200190815260200160002060006101000a81548160ff0219169083600481111561099757610996612dbf565b5b0217905550600180600b0160008473ffffffffffffffffffffffffffffffffffffffff1673ffffffffffffffffffffffffffffffffffffffff16815260200190815260200160002060006101000a81548160ff021916908315150217905550602060019054906101000a900473ffffffffffffffffffffffffffffffffffffffff1673ffffffffffffffffffffffffffffffffffffffff1663b1d23bdc836040518263ffffffff1660e01b8152600401610a519190612d2a565b600060405180830381600087803b158015610a6b57600080fd5b505af1158015610a7f573d6000803e3d6000fd5b50505050601b54600160150160008373ffffffffffffffffffffffffffffffffffffffff1673ffffffffffffffffffffffffffffffffffffffff1681526020019081526020016000205410610b3b57600180600d0160008373ffffffffffffffffffffffffffffffffffffffff1673ffffffffffffffffffffffffffffffffffffffff16815260200190815260200160002060006101000a81548160ff021916908315150217905550610b3181611b73565b610b3a81611e26565b5b505050565b601c5481565b60188181548110610b5657600080fd5b906000526020600020016000915090508054610b7190612fea565b80601f0160208091040260200160405190810160405280929190818152602001828054610b9d90612fea565b8015610bea5780601f10610bbf57610100808354040283529160200191610bea565b820191906000526020600020905b815481529060010190602001808311610bcd57829003601f168201915b505050505081565b60003390506001600a0160008273ffffffffffffffffffffffffffffffffffffffff1673ffffffffffffffffffffffffffffffffffffffff16815260200190815260200160002060009054906101000a900460ff1615610c87576040517f08c379a0000000000000000000000000000000000000000000000000000000008152600401610c7e9061352a565b60405180910390fd5b6001600001805490508383905014610cd4576040517f08c379a0000000000000000000000000000000000000000000000000000000008152600401610ccb906135bc565b60405180910390fd5b601a54600180018054905010610d1f576040517f08c379a0000000000000000000000000000000000000000000000000000000008152600401610d1690613628565b60405180910390fd5b600180600a0160008373ffffffffffffffffffffffffffffffffffffffff1673ffffffffffffffffffffffffffffffffffffffff16815260200190815260200160002060006101000a81548160ff02191690831515021790555060018001819080600181540180825580915050600190039060005260206000200160009091909190916101000a81548173ffffffffffffffffffffffffffffffffffffffff021916908373ffffffffffffffffffffffffffffffffffffffff16021790555060005b83839050811015610e8557838382818110610dff57610dfe613648565b5b9050602002810190610e119190613686565b6001600e0160008573ffffffffffffffffffffffffffffffffffffffff1673ffffffffffffffffffffffffffffffffffffffff16815260200190815260200160002060008481526020019081526020016000209182610e719291906136f4565b508080610e7d906137c4565b915050610de1565b506001600201805490506001600c0160008373ffffffffffffffffffffffffffffffffffffffff1673ffffffffffffffffffffffffffffffffffffffff168152602001908152602001600020819055506001600201819080600181540180825580915050600190039060005260206000200160009091909190916101000a81548173ffffffffffffffffffffffffffffffffffffffff021916908373ffffffffffffffffffffffffffffffffffffffff160217905550602060019054906101000a900473ffffffffffffffffffffffffffffffffffffffff1673ffffffffffffffffffffffffffffffffffffffff1663b1d23bdc826040518263ffffffff1660e01b8152600401610f969190612d2a565b600060405180830381600087803b158015610fb057600080fd5b505af1158015610fc4573d6000803e3d6000fd5b50505050601a546001800180549050106110c95760026000806101000a81548160ff02191690836003811115610ffd57610ffc612dbf565b5b0217905550602060019054906101000a900473ffffffffffffffffffffffffffffffffffffffff1673ffffffffffffffffffffffffffffffffffffffff166362c5f1356040518163ffffffff1660e01b8152600401600060405180830381600087803b15801561106c57600080fd5b505af1158015611080573d6000803e3d6000fd5b505050507f273467821f33675618854603ef917ebcec8a1a39f95c43d5564ed1aefab870b360008054906101000a900460ff166040516110c09190612e36565b60405180910390a15b505050565b6000600160120160008373ffffffffffffffffffffffffffffffffffffffff1673ffffffffffffffffffffffffffffffffffffffff16815260200190815260200160002060009054906101000a900473ffffffffffffffffffffffffffffffffffffffff169050919050565b601e5481565b602060019054906101000a900473ffffffffffffffffffffffffffffffffffffffff1681565b601b5481565b60038081111561117f5761117e612dbf565b5b60008054906101000a900460ff16600381111561119f5761119e612dbf565b5b036111a957600080fd5b602060019054906101000a900473ffffffffffffffffffffffffffffffffffffffff1673ffffffffffffffffffffffffffffffffffffffff166372c258a06040518163ffffffff1660e01b8152600401600060405180830381600087803b15801561121357600080fd5b505af1158015611227573d6000803e3d6000fd5b5050505060036000806101000a81548160ff021916908360038111156112505761124f612dbf565b5b0217905550565b601a5481565b602160009054906101000a900473ffffffffffffffffffffffffffffffffffffffff1681565b60008054906101000a900460ff1681565b602060009054906101000a900460ff16156112e4576040517f08c379a00000000000000000000000000000000000000000000000000000000081526004016112db90613858565b60405180910390fd5b6001602060006101000a81548160ff02191690831515021790555080600160000190805190602001906113189291906126b8565b50806018908051906020019061132f9291906126b8565b5060016000806101000a81548160ff0219169083600381111561135557611354612dbf565b5b02179055507f273467821f33675618854603ef917ebcec8a1a39f95c43d5564ed1aefab870b360008054906101000a900460ff166040516113969190612e36565b60405180910390a150565b600080339050600260038111156113bb576113ba612dbf565b5b60008054906101000a900460ff1660038111156113db576113da612dbf565b5b1461141b576040517f08c379a0000000000000000000000000000000000000000000000000000000008152600401611412906133f8565b60405180910390fd5b600160160160008273ffffffffffffffffffffffffffffffffffffffff1673ffffffffffffffffffffffffffffffffffffffff16815260200190815260200160002060009054906101000a900460ff16156114ab576040517f08c379a00000000000000000000000000000000000000000000000000000000081526004016114a2906138c4565b60405180910390fd5b60018060160160008373ffffffffffffffffffffffffffffffffffffffff1673ffffffffffffffffffffffffffffffffffffffff16815260200190815260200160002060006101000a81548160ff0219169083151502179055506000611518600160020180549050612007565b90506001600201818154811061153157611530613648565b5b9060005260206000200160009054906101000a900473ffffffffffffffffffffffffffffffffffffffff16600160120160008473ffffffffffffffffffffffffffffffffffffffff1673ffffffffffffffffffffffffffffffffffffffff16815260200190815260200160002060006101000a81548173ffffffffffffffffffffffffffffffffffffffff021916908373ffffffffffffffffffffffffffffffffffffffff160217905550600160120160008373ffffffffffffffffffffffffffffffffffffffff1673ffffffffffffffffffffffffffffffffffffffff16815260200190815260200160002060009054906101000a900473ffffffffffffffffffffffffffffffffffffffff169250505090565b606060038081111561165b5761165a612dbf565b5b60008054906101000a900460ff16600381111561167b5761167a612dbf565b5b14806116b857506002600381111561169657611695612dbf565b5b60008054906101000a900460ff1660038111156116b6576116b5612dbf565b5b145b6116c157600080fd5b6001600e0160008473ffffffffffffffffffffffffffffffffffffffff1673ffffffffffffffffffffffffffffffffffffffff1681526020019081526020016000206000838152602001908152602001600020805461171f90612fea565b80601f016020809104026020016040519081016040528092919081815260200182805461174b90612fea565b80156117985780601f1061176d57610100808354040283529160200191611798565b820191906000526020600020905b81548152906001019060200180831161177b57829003601f168201915b5050505050905092915050565b60006003808111156117ba576117b9612dbf565b5b60008054906101000a900460ff1660038111156117da576117d9612dbf565b5b146117e457600080fd5b6001600a0160008373ffffffffffffffffffffffffffffffffffffffff1673ffffffffffffffffffffffffffffffffffffffff16815260200190815260200160002060009054906101000a900460ff16156118a0576118996118946001600f0160008573ffffffffffffffffffffffffffffffffffffffff1673ffffffffffffffffffffffffffffffffffffffff16815260200190815260200160002060009054906101000a900460ff16612065565b612175565b9050611a5c565b6001600b0160008373ffffffffffffffffffffffffffffffffffffffff1673ffffffffffffffffffffffffffffffffffffffff16815260200190815260200160002060009054906101000a900460ff1615611a5757600061194f600160100160008573ffffffffffffffffffffffffffffffffffffffff1673ffffffffffffffffffffffffffffffffffffffff16815260200190815260200160002060009054906101000a900460ff16612065565b90506000600160120160008573ffffffffffffffffffffffffffffffffffffffff1673ffffffffffffffffffffffffffffffffffffffff16815260200190815260200160002060009054906101000a900473ffffffffffffffffffffffffffffffffffffffff1690506000611a126001600f0160008473ffffffffffffffffffffffffffffffffffffffff1673ffffffffffffffffffffffffffffffffffffffff16815260200190815260200160002060009054906101000a900460ff16612065565b9050808310611a3957611a2f8184611a2a9190613378565b61221b565b9350505050611a5c565b611a4d8382611a489190613378565b61221b565b9350505050611a5c565b600090505b919050565b601d5481565b6000806003811115611a7c57611a7b612dbf565b5b60008054906101000a900460ff166003811115611a9c57611a9b612dbf565b5b03611aaa5760009050611b70565b60016003811115611abe57611abd612dbf565b5b60008054906101000a900460ff166003811115611ade57611add612dbf565b5b03611aec5760019050611b70565b60026003811115611b0057611aff612dbf565b5b60008054906101000a900460ff166003811115611b2057611b1f612dbf565b5b03611b2e5760029050611b70565b600380811115611b4157611b40612dbf565b5b60008054906101000a900460ff166003811115611b6157611b60612dbf565b5b03611b6f5760039050611b70565b5b90565b60006001600c0160008373ffffffffffffffffffffffffffffffffffffffff1673ffffffffffffffffffffffffffffffffffffffff16815260200190815260200160002054905060018060020180549050611bce9190613378565b811015611cd7576000600160020160018060020180549050611bf09190613378565b81548110611c0157611c00613648565b5b9060005260206000200160009054906101000a900473ffffffffffffffffffffffffffffffffffffffff169050816001600c0160008373ffffffffffffffffffffffffffffffffffffffff1673ffffffffffffffffffffffffffffffffffffffff168152602001908152602001600020819055508060016002018381548110611c8d57611c8c613648565b5b9060005260206000200160006101000a81548173ffffffffffffffffffffffffffffffffffffffff021916908373ffffffffffffffffffffffffffffffffffffffff160217905550505b6001600201805480611cec57611ceb6138e4565b5b6001900381819060005260206000200160006101000a81549073ffffffffffffffffffffffffffffffffffffffff02191690559055600060016002018054905003611e225760036000806101000a81548160ff02191690836003811115611d5657611d55612dbf565b5b0217905550602060019054906101000a900473ffffffffffffffffffffffffffffffffffffffff1673ffffffffffffffffffffffffffffffffffffffff166372c258a06040518163ffffffff1660e01b8152600401600060405180830381600087803b158015611dc557600080fd5b505af1158015611dd9573d6000803e3d6000fd5b505050507f273467821f33675618854603ef917ebcec8a1a39f95c43d5564ed1aefab870b360008054906101000a900460ff16604051611e199190612e36565b60405180910390a15b5050565b611e2f816122a0565b600160130160008373ffffffffffffffffffffffffffffffffffffffff1673ffffffffffffffffffffffffffffffffffffffff16815260200190815260200160002081905550600a600f601b54611e8691906132be565b611e909190613347565b600160130160008373ffffffffffffffffffffffffffffffffffffffff1673ffffffffffffffffffffffffffffffffffffffff168152602001908152602001600020541115611f44576001600301819080600181540180825580915050600190039060005260206000200160009091909190916101000a81548173ffffffffffffffffffffffffffffffffffffffff021916908373ffffffffffffffffffffffffffffffffffffffff160217905550611fab565b6001600401819080600181540180825580915050600190039060005260206000200160009091909190916101000a81548173ffffffffffffffffffffffffffffffffffffffff021916908373ffffffffffffffffffffffffffffffffffffffff1602179055505b612004816001600f0160008473ffffffffffffffffffffffffffffffffffffffff1673ffffffffffffffffffffffffffffffffffffffff16815260200190815260200160002060009054906101000a900460ff166124ff565b50565b6000601f600081548092919061201c906137c4565b9190505550814233601f548560405160200161203b949392919061397c565b6040516020818303038152906040528051906020012060001c61205e91906139ca565b9050919050565b600060048081111561207a57612079612dbf565b5b82600481111561208d5761208c612dbf565b5b0361209b5760049050612170565b600360048111156120af576120ae612dbf565b5b8260048111156120c2576120c1612dbf565b5b036120d05760039050612170565b600260048111156120e4576120e3612dbf565b5b8260048111156120f7576120f6612dbf565b5b036121055760029050612170565b6001600481111561211957612118612dbf565b5b82600481111561212c5761212b612dbf565b5b0361213a5760019050612170565b6000600481111561214e5761214d612dbf565b5b82600481111561216157612160612dbf565b5b0361216f5760009050612170565b5b919050565b600080600160090154600160080154600261219091906132be565b60016007015460046121a291906132be565b6121ac91906134aa565b6121b691906134aa565b601d546121c39190613347565b9050600483036121e2578060046121da91906132be565b915050612216565b600383036121ff578060026121f791906132be565b915050612216565b600283036122105780915050612216565b60009150505b919050565b6000806064600160060154601e61223291906132be565b61223c9190613347565b60016005015461224c91906134aa565b601e546122599190613347565b90506000830361226c578091505061229b565b60018303612295576064601e8261228391906132be565b61228d9190613347565b91505061229b565b60009150505b919050565b6000806000905060005b600581101561236b5780600160140160008673ffffffffffffffffffffffffffffffffffffffff1673ffffffffffffffffffffffffffffffffffffffff168152602001908152602001600020600083600481111561230b5761230a612dbf565b5b600481111561231d5761231c612dbf565b5b600481111561232f5761232e612dbf565b5b81526020019081526020016000208054905061234b91906132be565b8261235691906134aa565b91508080612363906137c4565b9150506122aa565b50601b54600a8261237c91906132be565b6123869190613347565b90506000600a6023601b5461239b91906132be565b6123a59190613347565b82106123cf5760049050600160070160008154809291906123c5906137c4565b919050555061248b565b600a6019601b546123e091906132be565b6123ea9190613347565b821061241457600390506001600801600081548092919061240a906137c4565b919050555061248a565b600a600f601b5461242591906132be565b61242f9190613347565b821061245957600290506001600901600081548092919061244f906137c4565b9190505550612489565b600a6005601b5461246a91906132be565b6124749190613347565b82106124835760019050612488565b600090505b5b5b5b806001600f0160008673ffffffffffffffffffffffffffffffffffffffff1673ffffffffffffffffffffffffffffffffffffffff16815260200190815260200160002060006101000a81548160ff021916908360048111156124f0576124ef612dbf565b5b02179055508192505050919050565b600160140160008373ffffffffffffffffffffffffffffffffffffffff1673ffffffffffffffffffffffffffffffffffffffff168152602001908152602001600020600082600481111561255657612555612dbf565b5b600481111561256857612567612dbf565b5b8152602001908152602001600020805490506001600501600082825461258e91906134aa565b9250508190555060008160048111156125aa576125a9612dbf565b5b905060005b60058110156126b25760008260ff168211156125db578260ff16826125d49190613378565b90506125ed565b818360ff166125ea9190613378565b90505b6001810361269e57600160140160008673ffffffffffffffffffffffffffffffffffffffff1673ffffffffffffffffffffffffffffffffffffffff168152602001908152602001600020600083600481111561264c5761264b612dbf565b5b600481111561265e5761265d612dbf565b5b60048111156126705761266f612dbf565b5b8152602001908152602001600020805490506001600601600082825461269691906134aa565b925050819055505b5080806126aa906137c4565b9150506125af565b50505050565b828054828255906000526020600020908101928215612700579160200282015b828111156126ff5782518290816126ef91906131bd565b50916020019190600101906126d8565b5b50905061270d9190612711565b5090565b5b8082111561273157600081816127289190612735565b50600101612712565b5090565b50805461274190612fea565b6000825580601f106127535750612772565b601f0160209004906000526020600020908101906127719190612775565b5b50565b5b8082111561278e576000816000905550600101612776565b5090565b600081519050919050565b600082825260208201905092915050565b60005b838110156127cc5780820151818401526020810190506127b1565b60008484015250505050565b6000601f19601f8301169050919050565b60006127f482612792565b6127fe818561279d565b935061280e8185602086016127ae565b612817816127d8565b840191505092915050565b6000602082019050818103600083015261283c81846127e9565b905092915050565b6000604051905090565b600080fd5b600080fd5b600080fd5b600080fd5b7f4e487b7100000000000000000000000000000000000000000000000000000000600052604160045260246000fd5b61289a826127d8565b810181811067ffffffffffffffff821117156128b9576128b8612862565b5b80604052505050565b60006128cc612844565b90506128d88282612891565b919050565b600067ffffffffffffffff8211156128f8576128f7612862565b5b612901826127d8565b9050602081019050919050565b82818337600083830152505050565b600061293061292b846128dd565b6128c2565b90508281526020810184848401111561294c5761294b61285d565b5b61295784828561290e565b509392505050565b600082601f83011261297457612973612858565b5b813561298484826020860161291d565b91505092915050565b6000819050919050565b6129a08161298d565b81146129ab57600080fd5b50565b6000813590506129bd81612997565b92915050565b600080600080600060a086880312156129df576129de61284e565b5b600086013567ffffffffffffffff8111156129fd576129fc612853565b5b612a098882890161295f565b9550506020612a1a888289016129ae565b9450506040612a2b888289016129ae565b9350506060612a3c888289016129ae565b9250506080612a4d888289016129ae565b9150509295509295909350565b600081519050919050565b600082825260208201905092915050565b6000819050602082019050919050565b600073ffffffffffffffffffffffffffffffffffffffff82169050919050565b6000612ab182612a86565b9050919050565b612ac181612aa6565b82525050565b6000612ad38383612ab8565b60208301905092915050565b6000602082019050919050565b6000612af782612a5a565b612b018185612a65565b9350612b0c83612a76565b8060005b83811015612b3d578151612b248882612ac7565b9750612b2f83612adf565b925050600181019050612b10565b5085935050505092915050565b60006020820190508181036000830152612b648184612aec565b905092915050565b60058110612b7957600080fd5b50565b600081359050612b8b81612b6c565b92915050565b600060208284031215612ba757612ba661284e565b5b6000612bb584828501612b7c565b91505092915050565b612bc78161298d565b82525050565b6000602082019050612be26000830184612bbe565b92915050565b600060208284031215612bfe57612bfd61284e565b5b6000612c0c848285016129ae565b91505092915050565b600080fd5b600080fd5b60008083601f840112612c3557612c34612858565b5b8235905067ffffffffffffffff811115612c5257612c51612c15565b5b602083019150836020820283011115612c6e57612c6d612c1a565b5b9250929050565b60008060208385031215612c8c57612c8b61284e565b5b600083013567ffffffffffffffff811115612caa57612ca9612853565b5b612cb685828601612c1f565b92509250509250929050565b612ccb81612aa6565b8114612cd657600080fd5b50565b600081359050612ce881612cc2565b92915050565b600060208284031215612d0457612d0361284e565b5b6000612d1284828501612cd9565b91505092915050565b612d2481612aa6565b82525050565b6000602082019050612d3f6000830184612d1b565b92915050565b6000819050919050565b6000612d6a612d65612d6084612a86565b612d45565b612a86565b9050919050565b6000612d7c82612d4f565b9050919050565b6000612d8e82612d71565b9050919050565b612d9e81612d83565b82525050565b6000602082019050612db96000830184612d95565b92915050565b7f4e487b7100000000000000000000000000000000000000000000000000000000600052602160045260246000fd5b60048110612dff57612dfe612dbf565b5b50565b6000819050612e1082612dee565b919050565b6000612e2082612e02565b9050919050565b612e3081612e15565b82525050565b6000602082019050612e4b6000830184612e27565b92915050565b600067ffffffffffffffff821115612e6c57612e6b612862565b5b602082029050602081019050919050565b6000612e90612e8b84612e51565b6128c2565b90508083825260208201905060208402830185811115612eb357612eb2612c1a565b5b835b81811015612efa57803567ffffffffffffffff811115612ed857612ed7612858565b5b808601612ee5898261295f565b85526020850194505050602081019050612eb5565b5050509392505050565b600082601f830112612f1957612f18612858565b5b8135612f29848260208601612e7d565b91505092915050565b600060208284031215612f4857612f4761284e565b5b600082013567ffffffffffffffff811115612f6657612f65612853565b5b612f7284828501612f04565b91505092915050565b60008060408385031215612f9257612f9161284e565b5b6000612fa085828601612cd9565b9250506020612fb1858286016129ae565b9150509250929050565b7f4e487b7100000000000000000000000000000000000000000000000000000000600052602260045260246000fd5b6000600282049050600182168061300257607f821691505b60208210810361301557613014612fbb565b5b50919050565b60008190508160005260206000209050919050565b60006020601f8301049050919050565b600082821b905092915050565b60006008830261307d7fffffffffffffffffffffffffffffffffffffffffffffffffffffffffffffffff82613040565b6130878683613040565b95508019841693508086168417925050509392505050565b60006130ba6130b56130b08461298d565b612d45565b61298d565b9050919050565b6000819050919050565b6130d48361309f565b6130e86130e0826130c1565b84845461304d565b825550505050565b600090565b6130fd6130f0565b6131088184846130cb565b505050565b5b8181101561312c576131216000826130f5565b60018101905061310e565b5050565b601f821115613171576131428161301b565b61314b84613030565b8101602085101561315a578190505b61316e61316685613030565b83018261310d565b50505b505050565b600082821c905092915050565b600061319460001984600802613176565b1980831691505092915050565b60006131ad8383613183565b9150826002028217905092915050565b6131c682612792565b67ffffffffffffffff8111156131df576131de612862565b5b6131e98254612fea565b6131f4828285613130565b600060209050601f8311600181146132275760008415613215578287015190505b61321f85826131a1565b865550613287565b601f1984166132358661301b565b60005b8281101561325d57848901518255600182019150602085019450602081019050613238565b8683101561327a5784890151613276601f891682613183565b8355505b6001600288020188555050505b505050505050565b7f4e487b7100000000000000000000000000000000000000000000000000000000600052601160045260246000fd5b60006132c98261298d565b91506132d48361298d565b9250817fffffffffffffffffffffffffffffffffffffffffffffffffffffffffffffffff048311821515161561330d5761330c61328f565b5b828202905092915050565b7f4e487b7100000000000000000000000000000000000000000000000000000000600052601260045260246000fd5b60006133528261298d565b915061335d8361298d565b92508261336d5761336c613318565b5b828204905092915050565b60006133838261298d565b915061338e8361298d565b92508282039050818111156133a6576133a561328f565b5b92915050565b7f537572766579206e6f7420696e20726576696577207374616765000000000000600082015250565b60006133e2601a8361279d565b91506133ed826133ac565b602082019050919050565b60006020820190508181036000830152613411816133d5565b9050919050565b7f4d6178696d756d206e756d626572206f66207265766965777320616c7265616460008201527f79207265616368656420666f7220746865207061727469636970616e74000000602082015250565b6000613474603d8361279d565b915061347f82613418565b604082019050919050565b600060208201905081810360008301526134a381613467565b9050919050565b60006134b58261298d565b91506134c08361298d565b92508282019050808211156134d8576134d761328f565b5b92915050565b7f416c726561647920616e73776572656400000000000000000000000000000000600082015250565b600061351460108361279d565b915061351f826134de565b602082019050919050565b6000602082019050818103600083015261354381613507565b9050919050565b7f4e756d626572206f6620616e7377657273206861766520746f2062652065717560008201527f616c20746f20746865206e756d626572206f66207175657374696f6e73000000602082015250565b60006135a6603d8361279d565b91506135b18261354a565b604082019050919050565b600060208201905081810360008301526135d581613599565b9050919050565b7f5061727469636970616e74206c696d6974207265616368656400000000000000600082015250565b600061361260198361279d565b915061361d826135dc565b602082019050919050565b6000602082019050818103600083015261364181613605565b9050919050565b7f4e487b7100000000000000000000000000000000000000000000000000000000600052603260045260246000fd5b600080fd5b600080fd5b600080fd5b600080833560016020038436030381126136a3576136a2613677565b5b80840192508235915067ffffffffffffffff8211156136c5576136c461367c565b5b6020830192506001820236038313156136e1576136e0613681565b5b509250929050565b600082905092915050565b6136fe83836136e9565b67ffffffffffffffff81111561371757613716612862565b5b6137218254612fea565b61372c828285613130565b6000601f83116001811461375b5760008415613749578287013590505b61375385826131a1565b8655506137bb565b601f1984166137698661301b565b60005b828110156137915784890135825560018201915060208501945060208101905061376c565b868310156137ae57848901356137aa601f891682613183565b8355505b6001600288020188555050505b50505050505050565b60006137cf8261298d565b91507fffffffffffffffffffffffffffffffffffffffffffffffffffffffffffffffff82036138015761380061328f565b5b600182019050919050565b7f5175657374696f6e7320616c7265616479207365740000000000000000000000600082015250565b600061384260158361279d565b915061384d8261380c565b602082019050919050565b6000602082019050818103600083015261387181613835565b9050919050565b7f416c72656164792061737369676e656400000000000000000000000000000000600082015250565b60006138ae60108361279d565b91506138b982613878565b602082019050919050565b600060208201905081810360008301526138dd816138a1565b9050919050565b7f4e487b7100000000000000000000000000000000000000000000000000000000600052603160045260246000fd5b6000819050919050565b61392e6139298261298d565b613913565b82525050565b60008160601b9050919050565b600061394c82613934565b9050919050565b600061395e82613941565b9050919050565b61397661397182612aa6565b613953565b82525050565b6000613988828761391d565b6020820191506139988286613965565b6014820191506139a8828561391d565b6020820191506139b8828461391d565b60208201915081905095945050505050565b60006139d58261298d565b91506139e08361298d565b9250826139f0576139ef613318565b5b82820690509291505056fea2646970667358221220c53dbd5da21895621bc5268be497971bc762c3832ea7d3429bb80eac7d5944b064736f6c63430008100033",
  "linkReferences": {},
  "deployedLinkReferences": {}
}