{
  "_format": "hh-sol-artifact-1",
  "contractName": "SurveyFactory",
  "sourceName": "contracts/SurveyFactory.sol",
  "abi": [
    {
      "inputs": [
        {
          "internalType": "address",
          "name": "_surveyImplementation",
          "type": "address"
        }
      ],
      "stateMutability": "nonpayable",
      "type": "constructor"
    },
    {
      "anonymous": false,
      "inputs": [
        {
          "indexed": false,
          "internalType": "address",
          "name": "survey",
          "type": "address"
        },
        {
          "indexed": false,
          "internalType": "string[]",
          "name": "questions",
          "type": "string[]"
        },
        {
          "indexed": false,
          "internalType": "string",
          "name": "_name",
          "type": "string"
        },
        {
          "indexed": false,
          "internalType": "uint256",
          "name": "_participants",
          "type": "uint256"
        },
        {
          "indexed": false,
          "internalType": "uint256",
          "name": "_endTime",
          "type": "uint256"
        },
        {
          "indexed": false,
          "internalType": "uint256",
          "name": "_capital",
          "type": "uint256"
        }
      ],
      "name": "SurveyCreated",
      "type": "event"
    },
    {
      "anonymous": false,
      "inputs": [
        {
          "indexed": false,
          "internalType": "address",
          "name": "survey",
          "type": "address"
        }
      ],
      "name": "SurveyEntersReviewStage",
      "type": "event"
    },
    {
      "anonymous": false,
      "inputs": [
        {
          "indexed": false,
          "internalType": "address",
          "name": "survey",
          "type": "address"
        }
      ],
      "name": "SurveyFinished",
      "type": "event"
    },
    {
      "inputs": [
        {
          "internalType": "address",
          "name": "_participant",
          "type": "address"
        }
      ],
      "name": "addSurveyCompleted",
      "outputs": [],
      "stateMutability": "nonpayable",
      "type": "function"
    },
    {
      "inputs": [
        {
          "internalType": "uint256",
          "name": "",
          "type": "uint256"
        }
      ],
      "name": "allSurveys",
      "outputs": [
        {
          "internalType": "address",
          "name": "",
          "type": "address"
        }
      ],
      "stateMutability": "view",
      "type": "function"
    },
    {
      "inputs": [
        {
          "internalType": "string[]",
          "name": "_questions",
          "type": "string[]"
        },
        {
          "internalType": "string",
          "name": "_name",
          "type": "string"
        },
        {
          "internalType": "uint256",
          "name": "_participants",
          "type": "uint256"
        },
        {
          "internalType": "uint256",
          "name": "_endTime",
          "type": "uint256"
        },
        {
          "internalType": "uint256",
          "name": "_reviewNeeded",
          "type": "uint256"
        },
        {
          "internalType": "uint256",
          "name": "_capital",
          "type": "uint256"
        }
      ],
      "name": "createSurvey",
      "outputs": [
        {
          "internalType": "address",
          "name": "survey",
          "type": "address"
        }
      ],
      "stateMutability": "payable",
      "type": "function"
    },
    {
      "inputs": [],
      "name": "enterReviewSurvey",
      "outputs": [],
      "stateMutability": "nonpayable",
      "type": "function"
    },
    {
      "inputs": [],
      "name": "finishSurvey",
      "outputs": [],
      "stateMutability": "nonpayable",
      "type": "function"
    },
    {
      "inputs": [
        {
          "internalType": "address",
          "name": "_participant",
          "type": "address"
        }
      ],
      "name": "getEarningsUserView",
      "outputs": [
        {
          "internalType": "uint256",
          "name": "totalEarnings",
          "type": "uint256"
        }
      ],
      "stateMutability": "view",
      "type": "function"
    },
    {
      "inputs": [],
      "name": "surveyImplementation",
      "outputs": [
        {
          "internalType": "address",
          "name": "",
          "type": "address"
        }
      ],
      "stateMutability": "view",
      "type": "function"
    },
    {
      "inputs": [],
      "name": "withdrawEarnings",
      "outputs": [],
      "stateMutability": "nonpayable",
      "type": "function"
    }
  ],
  "bytecode": "0x60806040523480156200001157600080fd5b5060405162001e9038038062001e908339818101604052810190620000379190620000e9565b80600160006101000a81548173ffffffffffffffffffffffffffffffffffffffff021916908373ffffffffffffffffffffffffffffffffffffffff160217905550506200011b565b600080fd5b600073ffffffffffffffffffffffffffffffffffffffff82169050919050565b6000620000b18262000084565b9050919050565b620000c381620000a4565b8114620000cf57600080fd5b50565b600081519050620000e381620000b8565b92915050565b6000602082840312156200010257620001016200007f565b5b60006200011284828501620000d2565b91505092915050565b611d65806200012b6000396000f3fe60806040526004361061007b5760003560e01c80638379f8991161004e5780638379f89914610141578063b1d23bdc14610158578063b1f06e2514610181578063b73c6ce9146101ac5761007b565b80631b6f2485146100805780633780ad45146100bd5780634b5141b1146100ed57806362c5f1351461012a575b600080fd5b34801561008c57600080fd5b506100a760048036038101906100a2919061116b565b6101c3565b6040516100b491906111d9565b60405180910390f35b6100d760048036038101906100d29190611420565b610202565b6040516100e491906111d9565b60405180910390f35b3480156100f957600080fd5b50610114600480360381019061010f9190611511565b6105b7565b604051610121919061154d565b60405180910390f35b34801561013657600080fd5b5061013f6107f8565b005b34801561014d57600080fd5b506101566108bd565b005b34801561016457600080fd5b5061017f600480360381019061017a9190611511565b6109da565b005b34801561018d57600080fd5b50610196610b09565b6040516101a391906111d9565b60405180910390f35b3480156101b857600080fd5b506101c1610b2f565b005b600081815481106101d357600080fd5b906000526020600020016000915054906101000a900473ffffffffffffffffffffffffffffffffffffffff1681565b6000813414610246576040517f08c379a000000000000000000000000000000000000000000000000000000000815260040161023d906115eb565b60405180910390fd5b428411610288576040517f08c379a000000000000000000000000000000000000000000000000000000000815260040161027f90611657565b60405180910390fd5b600086868686866040516020016102a3959493929190611709565b6040516020818303038152906040528051906020012090506102e7600160009054906101000a900473ffffffffffffffffffffffffffffffffffffffff1682610c2f565b91508173ffffffffffffffffffffffffffffffffffffffff16631e7fea2088888888886040518663ffffffff1660e01b815260040161032a95949392919061179d565b600060405180830381600087803b15801561034457600080fd5b505af1158015610358573d6000803e3d6000fd5b505050508173ffffffffffffffffffffffffffffffffffffffff1663c627278f896040518263ffffffff1660e01b81526004016103959190611903565b600060405180830381600087803b1580156103af57600080fd5b505af11580156103c3573d6000803e3d6000fd5b50505050600080549050600260008473ffffffffffffffffffffffffffffffffffffffff1673ffffffffffffffffffffffffffffffffffffffff168152602001908152602001600020819055506000829080600181540180825580915050600190039060005260206000200160009091909190916101000a81548173ffffffffffffffffffffffffffffffffffffffff021916908373ffffffffffffffffffffffffffffffffffffffff1602179055506001600360008473ffffffffffffffffffffffffffffffffffffffff1673ffffffffffffffffffffffffffffffffffffffff16815260200190815260200160002060006101000a81548160ff021916908315150217905550600660003373ffffffffffffffffffffffffffffffffffffffff1673ffffffffffffffffffffffffffffffffffffffff168152602001908152602001600020829080600181540180825580915050600190039060005260206000200160009091909190916101000a81548173ffffffffffffffffffffffffffffffffffffffff021916908373ffffffffffffffffffffffffffffffffffffffff1602179055507f1da2f295a25520b94a570e6573444e8db3709285fbced6ebe85857581bc4d40e8289898989886040516105a496959493929190611925565b60405180910390a1509695505050505050565b6000806000905060005b600560008573ffffffffffffffffffffffffffffffffffffffff1673ffffffffffffffffffffffffffffffffffffffff168152602001908152602001600020805490508110156107ee5760046000600560008773ffffffffffffffffffffffffffffffffffffffff1673ffffffffffffffffffffffffffffffffffffffff16815260200190815260200160002083815481106106605761065f611994565b5b9060005260206000200160009054906101000a900473ffffffffffffffffffffffffffffffffffffffff1673ffffffffffffffffffffffffffffffffffffffff1673ffffffffffffffffffffffffffffffffffffffff16815260200190815260200160002060009054906101000a900460ff16156107db57600560008573ffffffffffffffffffffffffffffffffffffffff1673ffffffffffffffffffffffffffffffffffffffff168152602001908152602001600020818154811061072957610728611994565b5b9060005260206000200160009054906101000a900473ffffffffffffffffffffffffffffffffffffffff1673ffffffffffffffffffffffffffffffffffffffff1663e0de0c68856040518263ffffffff1660e01b815260040161078c91906111d9565b602060405180830381865afa1580156107a9573d6000803e3d6000fd5b505050506040513d601f19601f820116820180604052508101906107cd91906119d8565b826107d89190611a34565b91505b80806107e690611a68565b9150506105c1565b5080915050919050565b600360003373ffffffffffffffffffffffffffffffffffffffff1673ffffffffffffffffffffffffffffffffffffffff16815260200190815260200160002060009054906101000a900460ff16610884576040517f08c379a000000000000000000000000000000000000000000000000000000000815260040161087b90611b22565b60405180910390fd5b7f72db8bd478e31cfd979372e9950d692e086d3d1ecc6bac00a03ad2250750469b336040516108b391906111d9565b60405180910390a1565b600360003373ffffffffffffffffffffffffffffffffffffffff1673ffffffffffffffffffffffffffffffffffffffff16815260200190815260200160002060009054906101000a900460ff16610949576040517f08c379a000000000000000000000000000000000000000000000000000000000815260040161094090611b22565b60405180910390fd5b6001600460003373ffffffffffffffffffffffffffffffffffffffff1673ffffffffffffffffffffffffffffffffffffffff16815260200190815260200160002060006101000a81548160ff0219169083151502179055507f301c0465c7976681833e1cdbb71dc1682e51f66649c27885b7c077b8e7fc1e46336040516109d091906111d9565b60405180910390a1565b600360003373ffffffffffffffffffffffffffffffffffffffff1673ffffffffffffffffffffffffffffffffffffffff16815260200190815260200160002060009054906101000a900460ff16610a66576040517f08c379a0000000000000000000000000000000000000000000000000000000008152600401610a5d90611b22565b60405180910390fd5b600560008273ffffffffffffffffffffffffffffffffffffffff1673ffffffffffffffffffffffffffffffffffffffff168152602001908152602001600020339080600181540180825580915050600190039060005260206000200160009091909190916101000a81548173ffffffffffffffffffffffffffffffffffffffff021916908373ffffffffffffffffffffffffffffffffffffffff16021790555050565b600160009054906101000a900473ffffffffffffffffffffffffffffffffffffffff1681565b6000610b3a33610ceb565b905060008111610b7f576040517f08c379a0000000000000000000000000000000000000000000000000000000008152600401610b7690611b8e565b60405180910390fd5b60003373ffffffffffffffffffffffffffffffffffffffff1682604051610ba590611bdf565b60006040518083038185875af1925050503d8060008114610be2576040519150601f19603f3d011682016040523d82523d6000602084013e610be7565b606091505b5050905080610c2b576040517f08c379a0000000000000000000000000000000000000000000000000000000008152600401610c2290611c40565b60405180910390fd5b5050565b6000763d602d80600a3d3981f3363d3d373d3d3d363d730000008360601b60e81c176000526e5af43d82803e903d91602b57fd5bf38360781b1760205281603760096000f59050600073ffffffffffffffffffffffffffffffffffffffff168173ffffffffffffffffffffffffffffffffffffffff1603610ce5576040517f08c379a0000000000000000000000000000000000000000000000000000000008152600401610cdc90611cac565b60405180910390fd5b92915050565b6000806000905060005b600560008573ffffffffffffffffffffffffffffffffffffffff1673ffffffffffffffffffffffffffffffffffffffff16815260200190815260200160002080549050811015610f2c5760046000600560008773ffffffffffffffffffffffffffffffffffffffff1673ffffffffffffffffffffffffffffffffffffffff1681526020019081526020016000208381548110610d9457610d93611994565b5b9060005260206000200160009054906101000a900473ffffffffffffffffffffffffffffffffffffffff1673ffffffffffffffffffffffffffffffffffffffff1673ffffffffffffffffffffffffffffffffffffffff16815260200190815260200160002060009054906101000a900460ff1615610f1957600560008573ffffffffffffffffffffffffffffffffffffffff1673ffffffffffffffffffffffffffffffffffffffff1681526020019081526020016000208181548110610e5d57610e5c611994565b5b9060005260206000200160009054906101000a900473ffffffffffffffffffffffffffffffffffffffff1673ffffffffffffffffffffffffffffffffffffffff1663e0de0c68856040518263ffffffff1660e01b8152600401610ec091906111d9565b602060405180830381865afa158015610edd573d6000803e3d6000fd5b505050506040513d601f19601f82011682018060405250810190610f0191906119d8565b82610f0c9190611a34565b9150610f188482610f36565b5b8080610f2490611a68565b915050610cf5565b5080915050919050565b600560008373ffffffffffffffffffffffffffffffffffffffff1673ffffffffffffffffffffffffffffffffffffffff1681526020019081526020016000206001600560008573ffffffffffffffffffffffffffffffffffffffff1673ffffffffffffffffffffffffffffffffffffffff16815260200190815260200160002080549050610fc49190611ccc565b81548110610fd557610fd4611994565b5b9060005260206000200160009054906101000a900473ffffffffffffffffffffffffffffffffffffffff16600560008473ffffffffffffffffffffffffffffffffffffffff1673ffffffffffffffffffffffffffffffffffffffff168152602001908152602001600020828154811061105157611050611994565b5b9060005260206000200160006101000a81548173ffffffffffffffffffffffffffffffffffffffff021916908373ffffffffffffffffffffffffffffffffffffffff160217905550600560008373ffffffffffffffffffffffffffffffffffffffff1673ffffffffffffffffffffffffffffffffffffffff1681526020019081526020016000208054806110e8576110e7611d00565b5b6001900381819060005260206000200160006101000a81549073ffffffffffffffffffffffffffffffffffffffff021916905590555050565b6000604051905090565b600080fd5b600080fd5b6000819050919050565b61114881611135565b811461115357600080fd5b50565b6000813590506111658161113f565b92915050565b6000602082840312156111815761118061112b565b5b600061118f84828501611156565b91505092915050565b600073ffffffffffffffffffffffffffffffffffffffff82169050919050565b60006111c382611198565b9050919050565b6111d3816111b8565b82525050565b60006020820190506111ee60008301846111ca565b92915050565b600080fd5b6000601f19601f8301169050919050565b7f4e487b7100000000000000000000000000000000000000000000000000000000600052604160045260246000fd5b611242826111f9565b810181811067ffffffffffffffff821117156112615761126061120a565b5b80604052505050565b6000611274611121565b90506112808282611239565b919050565b600067ffffffffffffffff8211156112a05761129f61120a565b5b602082029050602081019050919050565b600080fd5b600080fd5b600067ffffffffffffffff8211156112d6576112d561120a565b5b6112df826111f9565b9050602081019050919050565b82818337600083830152505050565b600061130e611309846112bb565b61126a565b90508281526020810184848401111561132a576113296112b6565b5b6113358482856112ec565b509392505050565b600082601f830112611352576113516111f4565b5b81356113628482602086016112fb565b91505092915050565b600061137e61137984611285565b61126a565b905080838252602082019050602084028301858111156113a1576113a06112b1565b5b835b818110156113e857803567ffffffffffffffff8111156113c6576113c56111f4565b5b8086016113d3898261133d565b855260208501945050506020810190506113a3565b5050509392505050565b600082601f830112611407576114066111f4565b5b813561141784826020860161136b565b91505092915050565b60008060008060008060c0878903121561143d5761143c61112b565b5b600087013567ffffffffffffffff81111561145b5761145a611130565b5b61146789828a016113f2565b965050602087013567ffffffffffffffff81111561148857611487611130565b5b61149489828a0161133d565b95505060406114a589828a01611156565b94505060606114b689828a01611156565b93505060806114c789828a01611156565b92505060a06114d889828a01611156565b9150509295509295509295565b6114ee816111b8565b81146114f957600080fd5b50565b60008135905061150b816114e5565b92915050565b6000602082840312156115275761152661112b565b5b6000611535848285016114fc565b91505092915050565b61154781611135565b82525050565b6000602082019050611562600083018461153e565b92915050565b600082825260208201905092915050565b7f416d6f756e7420696e20746865206d657373616765206973206e6f742065717560008201527f616c20746f2074686520616d6f756e7420737065636966696564000000000000602082015250565b60006115d5603a83611568565b91506115e082611579565b604082019050919050565b60006020820190508181036000830152611604816115c8565b9050919050565b7f456e642054696d65206d75737420626520696e20746865206675747572650000600082015250565b6000611641601e83611568565b915061164c8261160b565b602082019050919050565b6000602082019050818103600083015261167081611634565b9050919050565b600081519050919050565b600081905092915050565b60005b838110156116ab578082015181840152602081019050611690565b60008484015250505050565b60006116c282611677565b6116cc8185611682565b93506116dc81856020860161168d565b80840191505092915050565b6000819050919050565b6117036116fe82611135565b6116e8565b82525050565b600061171582886116b7565b915061172182876116f2565b60208201915061173182866116f2565b60208201915061174182856116f2565b60208201915061175182846116f2565b6020820191508190509695505050505050565b600061176f82611677565b6117798185611568565b935061178981856020860161168d565b611792816111f9565b840191505092915050565b600060a08201905081810360008301526117b78188611764565b90506117c6602083018761153e565b6117d3604083018661153e565b6117e0606083018561153e565b6117ed608083018461153e565b9695505050505050565b600081519050919050565b600082825260208201905092915050565b6000819050602082019050919050565b600082825260208201905092915050565b600061183f82611677565b6118498185611823565b935061185981856020860161168d565b611862816111f9565b840191505092915050565b60006118798383611834565b905092915050565b6000602082019050919050565b6000611899826117f7565b6118a38185611802565b9350836020820285016118b585611813565b8060005b858110156118f157848403895281516118d2858261186d565b94506118dd83611881565b925060208a019950506001810190506118b9565b50829750879550505050505092915050565b6000602082019050818103600083015261191d818461188e565b905092915050565b600060c08201905061193a60008301896111ca565b818103602083015261194c818861188e565b905081810360408301526119608187611764565b905061196f606083018661153e565b61197c608083018561153e565b61198960a083018461153e565b979650505050505050565b7f4e487b7100000000000000000000000000000000000000000000000000000000600052603260045260246000fd5b6000815190506119d28161113f565b92915050565b6000602082840312156119ee576119ed61112b565b5b60006119fc848285016119c3565b91505092915050565b7f4e487b7100000000000000000000000000000000000000000000000000000000600052601160045260246000fd5b6000611a3f82611135565b9150611a4a83611135565b9250828201905080821115611a6257611a61611a05565b5b92915050565b6000611a7382611135565b91507fffffffffffffffffffffffffffffffffffffffffffffffffffffffffffffffff8203611aa557611aa4611a05565b5b600182019050919050565b7f4f6e6c7920737572766579732063616e2063616c6c20746869732066756e637460008201527f696f6e0000000000000000000000000000000000000000000000000000000000602082015250565b6000611b0c602383611568565b9150611b1782611ab0565b604082019050919050565b60006020820190508181036000830152611b3b81611aff565b9050919050565b7f4e6f2070656e64696e67206561726e696e677300000000000000000000000000600082015250565b6000611b78601383611568565b9150611b8382611b42565b602082019050919050565b60006020820190508181036000830152611ba781611b6b565b9050919050565b600081905092915050565b50565b6000611bc9600083611bae565b9150611bd482611bb9565b600082019050919050565b6000611bea82611bbc565b9150819050919050565b7f5769746864726177206661696c65640000000000000000000000000000000000600082015250565b6000611c2a600f83611568565b9150611c3582611bf4565b602082019050919050565b60006020820190508181036000830152611c5981611c1d565b9050919050565b7f455243313136373a2063726561746532206661696c6564000000000000000000600082015250565b6000611c96601783611568565b9150611ca182611c60565b602082019050919050565b60006020820190508181036000830152611cc581611c89565b9050919050565b6000611cd782611135565b9150611ce283611135565b9250828203905081811115611cfa57611cf9611a05565b5b92915050565b7f4e487b7100000000000000000000000000000000000000000000000000000000600052603160045260246000fdfea264697066735822122087f566e96b2c8db9bf6bfcb8b263e0b7a84903147d82d3fda1e172c411b71a3f64736f6c63430008100033",
  "linkReferences": {},
  "deployedLinkReferences": {}
}